{
  "contractName": "Voting",
  "abi": [
    {
      "inputs": [],
      "stateMutability": "nonpayable",
      "type": "constructor"
    },
    {
      "anonymous": false,
      "inputs": [
        {
          "indexed": false,
          "internalType": "uint256",
          "name": "electionId",
          "type": "uint256"
        },
        {
          "indexed": false,
          "internalType": "address",
          "name": "voter",
          "type": "address"
        }
      ],
      "name": "AlreadyVoted",
      "type": "event"
    },
    {
      "anonymous": false,
      "inputs": [
        {
          "indexed": false,
          "internalType": "uint256",
          "name": "electionId",
          "type": "uint256"
        },
        {
          "indexed": false,
          "internalType": "address",
          "name": "voter",
          "type": "address"
        }
      ],
      "name": "AlreadyVotedMessage",
      "type": "event"
    },
    {
      "anonymous": false,
      "inputs": [
        {
          "indexed": true,
          "internalType": "uint256",
          "name": "electionId",
          "type": "uint256"
        },
        {
          "indexed": false,
          "internalType": "uint256",
          "name": "candidateId",
          "type": "uint256"
        },
        {
          "indexed": false,
          "internalType": "string",
          "name": "name",
          "type": "string"
        }
      ],
      "name": "CandidateAdded",
      "type": "event"
    },
    {
      "anonymous": false,
      "inputs": [
        {
          "indexed": true,
          "internalType": "uint256",
          "name": "electionId",
          "type": "uint256"
        },
        {
          "indexed": false,
          "internalType": "uint256",
          "name": "candidateId",
          "type": "uint256"
        }
      ],
      "name": "CandidateDeleted",
      "type": "event"
    },
    {
      "anonymous": false,
      "inputs": [
        {
          "indexed": false,
          "internalType": "uint256",
          "name": "electionId",
          "type": "uint256"
        },
        {
          "indexed": false,
          "internalType": "uint256",
          "name": "candidateId",
          "type": "uint256"
        }
      ],
      "name": "CandidateDoesNotExist",
      "type": "event"
    },
    {
      "anonymous": false,
      "inputs": [
        {
          "indexed": true,
          "internalType": "uint256",
          "name": "electionId",
          "type": "uint256"
        },
        {
          "indexed": false,
          "internalType": "uint256",
          "name": "candidateId",
          "type": "uint256"
        },
        {
          "indexed": false,
          "internalType": "uint256",
          "name": "candidateIndex",
          "type": "uint256"
        }
      ],
      "name": "CandidateIndexFound",
      "type": "event"
    },
    {
      "anonymous": false,
      "inputs": [
        {
          "indexed": true,
          "internalType": "uint256",
          "name": "electionId",
          "type": "uint256"
        },
        {
          "indexed": false,
          "internalType": "uint256",
          "name": "candidateId",
          "type": "uint256"
        },
        {
          "indexed": false,
          "internalType": "string",
          "name": "name",
          "type": "string"
        }
      ],
      "name": "CandidateUpdated",
      "type": "event"
    },
    {
      "anonymous": false,
      "inputs": [
        {
          "indexed": true,
          "internalType": "uint256",
          "name": "electionId",
          "type": "uint256"
        },
        {
          "indexed": false,
          "internalType": "uint256",
          "name": "numberOfCandidates",
          "type": "uint256"
        }
      ],
      "name": "CandidatesRetrieved",
      "type": "event"
    },
    {
      "anonymous": false,
      "inputs": [
        {
          "indexed": true,
          "internalType": "uint256",
          "name": "electionId",
          "type": "uint256"
        }
      ],
      "name": "ElectionClosed",
      "type": "event"
    },
    {
      "anonymous": false,
      "inputs": [
        {
          "indexed": true,
          "internalType": "uint256",
          "name": "electionId",
          "type": "uint256"
        },
        {
          "indexed": false,
          "internalType": "string",
          "name": "title",
          "type": "string"
        }
      ],
      "name": "ElectionCreated",
      "type": "event"
    },
    {
      "anonymous": false,
      "inputs": [
        {
          "indexed": false,
          "internalType": "uint256",
          "name": "electionId",
          "type": "uint256"
        },
        {
          "indexed": false,
          "internalType": "string",
          "name": "message",
          "type": "string"
        }
      ],
      "name": "ElectionNotActive",
      "type": "event"
    },
    {
      "anonymous": false,
      "inputs": [
        {
          "indexed": false,
          "internalType": "uint256",
          "name": "electionId",
          "type": "uint256"
        },
        {
          "indexed": false,
          "internalType": "string",
          "name": "message",
          "type": "string"
        }
      ],
      "name": "ElectionNotStarted",
      "type": "event"
    },
    {
      "anonymous": false,
      "inputs": [
        {
          "indexed": true,
          "internalType": "uint256",
          "name": "electionId",
          "type": "uint256"
        },
        {
          "indexed": false,
          "internalType": "bool",
          "name": "isActive",
          "type": "bool"
        },
        {
          "indexed": false,
          "internalType": "uint256",
          "name": "startDate",
          "type": "uint256"
        },
        {
          "indexed": false,
          "internalType": "uint256",
          "name": "endDate",
          "type": "uint256"
        }
      ],
      "name": "ElectionRetrieved",
      "type": "event"
    },
    {
      "anonymous": false,
      "inputs": [
        {
          "indexed": true,
          "internalType": "uint256",
          "name": "electionId",
          "type": "uint256"
        },
        {
          "indexed": false,
          "internalType": "bool",
          "name": "isActive",
          "type": "bool"
        }
      ],
      "name": "ElectionStatusChecked",
      "type": "event"
    },
    {
      "anonymous": false,
      "inputs": [
        {
          "indexed": true,
          "internalType": "uint256",
          "name": "electionId",
          "type": "uint256"
        },
        {
          "indexed": false,
          "internalType": "string",
          "name": "title",
          "type": "string"
        }
      ],
      "name": "ElectionUpdated",
      "type": "event"
    },
    {
      "anonymous": false,
      "inputs": [
        {
          "indexed": true,
          "internalType": "uint256",
          "name": "electionId",
          "type": "uint256"
        },
        {
          "indexed": true,
          "internalType": "uint256",
          "name": "candidateId",
          "type": "uint256"
        },
        {
          "indexed": true,
          "internalType": "address",
          "name": "voter",
          "type": "address"
        },
        {
          "indexed": false,
          "internalType": "uint256",
          "name": "timestamp",
          "type": "uint256"
        }
      ],
      "name": "VoteCasted",
      "type": "event"
    },
    {
      "anonymous": false,
      "inputs": [
        {
          "indexed": true,
          "internalType": "uint256",
          "name": "electionId",
          "type": "uint256"
        },
        {
          "indexed": true,
          "internalType": "uint256",
          "name": "candidateId",
          "type": "uint256"
        },
        {
          "indexed": true,
          "internalType": "address",
          "name": "voter",
          "type": "address"
        },
        {
          "indexed": false,
          "internalType": "uint256",
          "name": "timestamp",
          "type": "uint256"
        }
      ],
      "name": "VoteCastedEvent",
      "type": "event"
    },
    {
      "anonymous": false,
      "inputs": [
        {
          "indexed": true,
          "internalType": "uint256",
          "name": "electionId",
          "type": "uint256"
        },
        {
          "indexed": true,
          "internalType": "uint256",
          "name": "candidateId",
          "type": "uint256"
        },
        {
          "indexed": true,
          "internalType": "address",
          "name": "voter",
          "type": "address"
        },
        {
          "indexed": false,
          "internalType": "bool",
          "name": "success",
          "type": "bool"
        },
        {
          "indexed": false,
          "internalType": "string",
          "name": "message",
          "type": "string"
        }
      ],
      "name": "VoteCastingCompleted",
      "type": "event"
    },
    {
      "anonymous": false,
      "inputs": [
        {
          "indexed": true,
          "internalType": "uint256",
          "name": "electionId",
          "type": "uint256"
        },
        {
          "indexed": true,
          "internalType": "uint256",
          "name": "candidateId",
          "type": "uint256"
        },
        {
          "indexed": true,
          "internalType": "address",
          "name": "voter",
          "type": "address"
        }
      ],
      "name": "VoteCastingInitiated",
      "type": "event"
    },
    {
      "anonymous": false,
      "inputs": [
        {
          "indexed": true,
          "internalType": "uint256",
          "name": "electionId",
          "type": "uint256"
        },
        {
          "indexed": false,
          "internalType": "uint256",
          "name": "candidateId",
          "type": "uint256"
        },
        {
          "indexed": false,
          "internalType": "uint256",
          "name": "newVoteCount",
          "type": "uint256"
        }
      ],
      "name": "VoteCountIncremented",
      "type": "event"
    },
    {
      "anonymous": false,
      "inputs": [
        {
          "indexed": true,
          "internalType": "uint256",
          "name": "electionId",
          "type": "uint256"
        },
        {
          "indexed": true,
          "internalType": "address",
          "name": "voter",
          "type": "address"
        },
        {
          "indexed": false,
          "internalType": "bool",
          "name": "hasVoted",
          "type": "bool"
        }
      ],
      "name": "VoterEligibilityChecked",
      "type": "event"
    },
    {
      "anonymous": false,
      "inputs": [
        {
          "indexed": true,
          "internalType": "uint256",
          "name": "electionId",
          "type": "uint256"
        },
        {
          "indexed": true,
          "internalType": "address",
          "name": "voter",
          "type": "address"
        }
      ],
      "name": "VoterMarked",
      "type": "event"
    },
    {
      "anonymous": false,
      "inputs": [
        {
          "indexed": false,
          "internalType": "uint256",
          "name": "electionId",
          "type": "uint256"
        },
        {
          "indexed": false,
          "internalType": "string",
          "name": "message",
          "type": "string"
        }
      ],
      "name": "VotingEnded",
      "type": "event"
    },
    {
      "anonymous": false,
      "inputs": [
        {
          "indexed": true,
          "internalType": "uint256",
          "name": "electionId",
          "type": "uint256"
        },
        {
          "indexed": false,
          "internalType": "uint256",
          "name": "currentTimestamp",
          "type": "uint256"
        },
        {
          "indexed": false,
          "internalType": "uint256",
          "name": "startDate",
          "type": "uint256"
        },
        {
          "indexed": false,
          "internalType": "uint256",
          "name": "endDate",
          "type": "uint256"
        }
      ],
      "name": "VotingPeriodChecked",
      "type": "event"
    },
    {
      "inputs": [
        {
          "internalType": "uint256",
          "name": "",
          "type": "uint256"
        },
        {
          "internalType": "uint256",
          "name": "",
          "type": "uint256"
        }
      ],
      "name": "candidatesByElection",
      "outputs": [
        {
          "internalType": "uint256",
          "name": "id",
          "type": "uint256"
        },
        {
          "internalType": "string",
          "name": "name",
          "type": "string"
        },
        {
          "internalType": "uint256",
          "name": "voteCount",
          "type": "uint256"
        }
      ],
      "stateMutability": "view",
      "type": "function",
      "constant": true
    },
    {
      "inputs": [
        {
          "internalType": "uint256",
          "name": "",
          "type": "uint256"
        }
      ],
      "name": "elections",
      "outputs": [
        {
          "internalType": "uint256",
          "name": "id",
          "type": "uint256"
        },
        {
          "internalType": "string",
          "name": "title",
          "type": "string"
        },
        {
          "internalType": "string",
          "name": "description",
          "type": "string"
        },
        {
          "internalType": "uint256",
          "name": "startDate",
          "type": "uint256"
        },
        {
          "internalType": "uint256",
          "name": "endDate",
          "type": "uint256"
        },
        {
          "internalType": "bool",
          "name": "isActive",
          "type": "bool"
        }
      ],
      "stateMutability": "view",
      "type": "function",
      "constant": true
    },
    {
      "inputs": [
        {
          "internalType": "uint256",
          "name": "",
          "type": "uint256"
        }
      ],
      "name": "nextCandidateIdByElection",
      "outputs": [
        {
          "internalType": "uint256",
          "name": "",
          "type": "uint256"
        }
      ],
      "stateMutability": "view",
      "type": "function",
      "constant": true
    },
    {
      "inputs": [],
      "name": "nextElectionId",
      "outputs": [
        {
          "internalType": "uint256",
          "name": "",
          "type": "uint256"
        }
      ],
      "stateMutability": "view",
      "type": "function",
      "constant": true
    },
    {
      "inputs": [
        {
          "internalType": "uint256",
          "name": "",
          "type": "uint256"
        },
        {
          "internalType": "address",
          "name": "",
          "type": "address"
        }
      ],
      "name": "votes",
      "outputs": [
        {
          "internalType": "bool",
          "name": "",
          "type": "bool"
        }
      ],
      "stateMutability": "view",
      "type": "function",
      "constant": true
    },
    {
      "inputs": [
        {
          "internalType": "address",
          "name": "",
          "type": "address"
        },
        {
          "internalType": "uint256",
          "name": "",
          "type": "uint256"
        }
      ],
      "name": "votingHistory",
      "outputs": [
        {
          "internalType": "address",
          "name": "voterAddress",
          "type": "address"
        },
        {
          "internalType": "uint256",
          "name": "electionId",
          "type": "uint256"
        },
        {
          "internalType": "string",
          "name": "electionName",
          "type": "string"
        },
        {
          "internalType": "uint256",
          "name": "electionDate",
          "type": "uint256"
        },
        {
          "internalType": "uint256",
          "name": "candidateId",
          "type": "uint256"
        },
        {
          "internalType": "string",
          "name": "candidateName",
          "type": "string"
        },
        {
          "internalType": "uint256",
          "name": "timestamp",
          "type": "uint256"
        },
        {
          "internalType": "bool",
          "name": "confirmationStatus",
          "type": "bool"
        },
        {
          "internalType": "bytes32",
          "name": "transactionHash",
          "type": "bytes32"
        }
      ],
      "stateMutability": "view",
      "type": "function",
      "constant": true
    },
    {
      "inputs": [
        {
          "internalType": "string",
          "name": "_title",
          "type": "string"
        },
        {
          "internalType": "string",
          "name": "_description",
          "type": "string"
        },
        {
          "internalType": "uint256",
          "name": "_startDate",
          "type": "uint256"
        },
        {
          "internalType": "uint256",
          "name": "_endDate",
          "type": "uint256"
        }
      ],
      "name": "createElection",
      "outputs": [],
      "stateMutability": "nonpayable",
      "type": "function"
    },
    {
      "inputs": [
        {
          "internalType": "uint256",
          "name": "_electionId",
          "type": "uint256"
        },
        {
          "internalType": "string",
          "name": "_title",
          "type": "string"
        },
        {
          "internalType": "string",
          "name": "_description",
          "type": "string"
        },
        {
          "internalType": "uint256",
          "name": "_startDate",
          "type": "uint256"
        },
        {
          "internalType": "uint256",
          "name": "_endDate",
          "type": "uint256"
        }
      ],
      "name": "updateElection",
      "outputs": [],
      "stateMutability": "nonpayable",
      "type": "function"
    },
    {
      "inputs": [
        {
          "internalType": "uint256",
          "name": "_electionId",
          "type": "uint256"
        }
      ],
      "name": "closeElection",
      "outputs": [],
      "stateMutability": "nonpayable",
      "type": "function"
    },
    {
      "inputs": [
        {
          "internalType": "uint256",
          "name": "_electionId",
          "type": "uint256"
        }
      ],
      "name": "checkElectionStatus",
      "outputs": [
        {
          "internalType": "string",
          "name": "",
          "type": "string"
        }
      ],
      "stateMutability": "nonpayable",
      "type": "function"
    },
    {
      "inputs": [],
      "name": "getElectionCount",
      "outputs": [
        {
          "internalType": "uint256",
          "name": "",
          "type": "uint256"
        }
      ],
      "stateMutability": "view",
      "type": "function",
      "constant": true
    },
    {
      "inputs": [
        {
          "internalType": "uint256",
          "name": "_electionId",
          "type": "uint256"
        },
        {
          "internalType": "string",
          "name": "_name",
          "type": "string"
        }
      ],
      "name": "addCandidate",
      "outputs": [],
      "stateMutability": "nonpayable",
      "type": "function"
    },
    {
      "inputs": [
        {
          "internalType": "uint256",
          "name": "_electionId",
          "type": "uint256"
        },
        {
          "internalType": "uint256",
          "name": "_candidateId",
          "type": "uint256"
        },
        {
          "internalType": "string",
          "name": "_name",
          "type": "string"
        }
      ],
      "name": "updateCandidate",
      "outputs": [],
      "stateMutability": "nonpayable",
      "type": "function"
    },
    {
      "inputs": [
        {
          "internalType": "uint256",
          "name": "_electionId",
          "type": "uint256"
        },
        {
          "internalType": "uint256",
          "name": "_candidateId",
          "type": "uint256"
        }
      ],
      "name": "deleteCandidate",
      "outputs": [],
      "stateMutability": "nonpayable",
      "type": "function"
    },
    {
      "inputs": [
        {
          "internalType": "address",
          "name": "_voter",
          "type": "address"
        },
        {
          "internalType": "uint256",
          "name": "_electionId",
          "type": "uint256"
        },
        {
          "internalType": "uint256",
          "name": "_candidateId",
          "type": "uint256"
        }
      ],
      "name": "castVote",
      "outputs": [
        {
          "internalType": "bool",
          "name": "success",
          "type": "bool"
        },
        {
          "internalType": "string",
          "name": "message",
          "type": "string"
        }
      ],
      "stateMutability": "nonpayable",
      "type": "function"
    },
    {
      "inputs": [
        {
          "internalType": "uint256",
          "name": "_electionId",
          "type": "uint256"
        }
      ],
      "name": "tallyVotes",
      "outputs": [
        {
          "components": [
            {
              "internalType": "uint256",
              "name": "id",
              "type": "uint256"
            },
            {
              "internalType": "string",
              "name": "name",
              "type": "string"
            },
            {
              "internalType": "uint256",
              "name": "voteCount",
              "type": "uint256"
            }
          ],
          "internalType": "struct Voting.Candidate[]",
          "name": "",
          "type": "tuple[]"
        }
      ],
      "stateMutability": "view",
      "type": "function",
      "constant": true
    },
    {
      "inputs": [
        {
          "internalType": "uint256",
          "name": "_electionId",
          "type": "uint256"
        }
      ],
      "name": "getCandidates",
      "outputs": [
        {
          "components": [
            {
              "internalType": "uint256",
              "name": "id",
              "type": "uint256"
            },
            {
              "internalType": "string",
              "name": "name",
              "type": "string"
            },
            {
              "internalType": "uint256",
              "name": "voteCount",
              "type": "uint256"
            }
          ],
          "internalType": "struct Voting.Candidate[]",
          "name": "",
          "type": "tuple[]"
        }
      ],
      "stateMutability": "view",
      "type": "function",
      "constant": true
    },
    {
      "inputs": [
        {
          "internalType": "uint256",
          "name": "_electionId",
          "type": "uint256"
        }
      ],
      "name": "getElection",
      "outputs": [
        {
          "components": [
            {
              "internalType": "uint256",
              "name": "id",
              "type": "uint256"
            },
            {
              "internalType": "string",
              "name": "title",
              "type": "string"
            },
            {
              "internalType": "string",
              "name": "description",
              "type": "string"
            },
            {
              "internalType": "uint256",
              "name": "startDate",
              "type": "uint256"
            },
            {
              "internalType": "uint256",
              "name": "endDate",
              "type": "uint256"
            },
            {
              "internalType": "bool",
              "name": "isActive",
              "type": "bool"
            }
          ],
          "internalType": "struct Voting.Election",
          "name": "",
          "type": "tuple"
        }
      ],
      "stateMutability": "view",
      "type": "function",
      "constant": true
    },
    {
      "inputs": [
        {
          "internalType": "uint256",
          "name": "_electionId",
          "type": "uint256"
        }
      ],
      "name": "getElectionResults",
      "outputs": [
        {
          "components": [
            {
              "internalType": "uint256",
              "name": "id",
              "type": "uint256"
            },
            {
              "internalType": "string",
              "name": "name",
              "type": "string"
            },
            {
              "internalType": "uint256",
              "name": "voteCount",
              "type": "uint256"
            }
          ],
          "internalType": "struct Voting.Candidate[]",
          "name": "",
          "type": "tuple[]"
        }
      ],
      "stateMutability": "view",
      "type": "function",
      "constant": true
    },
    {
      "inputs": [
        {
          "internalType": "address",
          "name": "_voter",
          "type": "address"
        }
      ],
      "name": "getVotingHistory",
      "outputs": [
        {
          "components": [
            {
              "internalType": "address",
              "name": "voterAddress",
              "type": "address"
            },
            {
              "internalType": "uint256",
              "name": "electionId",
              "type": "uint256"
            },
            {
              "internalType": "string",
              "name": "electionName",
              "type": "string"
            },
            {
              "internalType": "uint256",
              "name": "electionDate",
              "type": "uint256"
            },
            {
              "internalType": "uint256",
              "name": "candidateId",
              "type": "uint256"
            },
            {
              "internalType": "string",
              "name": "candidateName",
              "type": "string"
            },
            {
              "internalType": "uint256",
              "name": "timestamp",
              "type": "uint256"
            },
            {
              "internalType": "bool",
              "name": "confirmationStatus",
              "type": "bool"
            },
            {
              "internalType": "bytes32",
              "name": "transactionHash",
              "type": "bytes32"
            }
          ],
          "internalType": "struct Voting.VoteRecord[]",
          "name": "",
          "type": "tuple[]"
        }
      ],
      "stateMutability": "view",
      "type": "function",
      "constant": true
    }
  ],
  "bytecode": "0x608060405234801561001057600080fd5b5061400d806100206000396000f3fe608060405234801561001057600080fd5b506004361061012c5760003560e01c80635daff901116100ad578063cab2d76e11610071578063cab2d76e14610380578063cf4a6060146103b1578063d09c34f2146103cd578063d23254b414610405578063e8ededa6146104355761012c565b80635daff9011461029d5780635e6fef01146102cd57806373963a9f146103025780637ad36e84146103345780639d710777146103505761012c565b80633bb76ef6116100f45780633bb76ef6146101d35780633e39a7a5146101ef5780634d318b0e1461021f5780635313837b1461024f5780635c18d4a71461026d5761012c565b806309e33d07146101315780630b91b25a1461014d5780631750a3d01461017d578063213785a01461019957806336af08a5146101b7575b600080fd5b61014b60048036038101906101469190612e3c565b610465565b005b61016760048036038101906101629190612e3c565b61051e565b604051610174919061393e565b60405180910390f35b61019760048036038101906101929190612ea1565b6107a1565b005b6101a16109ad565b6040516101ae9190613a82565b60405180910390f35b6101d160048036038101906101cc9190612ef5565b6109b7565b005b6101ed60048036038101906101e89190612fd8565b610af7565b005b61020960048036038101906102049190612e3c565b610d13565b604051610216919061384a565b60405180910390f35b61023960048036038101906102349190612e3c565b610e2a565b604051610246919061384a565b60405180910390f35b610257611120565b6040516102649190613a82565b60405180910390f35b61028760048036038101906102829190612e3c565b611126565b6040516102949190613a82565b60405180910390f35b6102b760048036038101906102b29190612cf5565b61113e565b6040516102c4919061386c565b60405180910390f35b6102e760048036038101906102e29190612e3c565b6113a4565b6040516102f996959493929190613af6565b60405180910390f35b61031c60048036038101906103179190612f9c565b6114fd565b60405161032b93929190613b65565b60405180910390f35b61034e60048036038101906103499190612da9565b6115cc565b005b61036a60048036038101906103659190612e3c565b611728565b6040516103779190613a60565b60405180910390f35b61039a60048036038101906103959190612d5a565b6118b2565b6040516103a89291906138a9565b60405180910390f35b6103cb60048036038101906103c69190612f9c565b612353565b005b6103e760048036038101906103e29190612d1e565b612650565b6040516103fc999897969594939291906137af565b60405180910390f35b61041f600480360381019061041a9190612e65565b6127f8565b60405161042c919061388e565b60405180910390f35b61044f600480360381019061044a9190612e3c565b612827565b60405161045c919061384a565b60405180910390f35b6000600160008381526020019081526020016000206004015414156104bf576040517f08c379a00000000000000000000000000000000000000000000000000000000081526004016104b6906139c0565b60405180910390fd5b60006001600083815260200190815260200160002060050160006101000a81548160ff021916908315150217905550807f393c4b8e62f1195313cf17dcf00793c668ddfc35881cd8015559c074f6d61e8360405160405180910390a250565b60606000600160008481526020019081526020016000209050827fdea44d67a46194a3aaabab19395620458bd58c28717bf536e61631d3cf9f23ef8260050160009054906101000a900460ff168360030154846004015460405161058493929190613907565b60405180910390a28060050160009054906101000a900460ff16610617577f231b98956aea4f6f9734d60d13a3b4627ac58f60f24e60ed3d3c355c735467c8836040516105d19190613bd1565b60405180910390a16040518060400160405280601281526020017f456c656374696f6e20697320636c6f736564000000000000000000000000000081525091505061079c565b8060030154421015610698577f2d10d978f5144035751ac474902abf00052f8026dbfaf68a7a5b606ae557cc31836040516106529190613bff565b60405180910390a16040518060400160405280601c81526020017f456c656374696f6e20686173206e6f742073746172746564207965740000000081525091505061079c565b8060040154421115610719577fa3227ce2555eb04e16ca713bb19edd3beed774c93bcdf4e971f7aa405c2ca253836040516106d39190613ba3565b60405180910390a16040518060400160405280601281526020017f456c656374696f6e2068617320656e646564000000000000000000000000000081525091505061079c565b827f267b91f53e29e6a55e1ad2064a6991cecfb4cab08d75b090352cd00f650e65fb8260050160009054906101000a900460ff1660405161075a919061388e565b60405180910390a26040518060400160405280601381526020017f456c656374696f6e206973206f6e676f696e67000000000000000000000000008152509150505b919050565b6000600160008481526020019081526020016000209050827fdea44d67a46194a3aaabab19395620458bd58c28717bf536e61631d3cf9f23ef8260050160009054906101000a900460ff168360030154846004015460405161080593929190613907565b60405180910390a28060050160009054906101000a900460ff1661085e576040517f08c379a000000000000000000000000000000000000000000000000000000000815260040161085590613a40565b60405180910390fd5b60008251116108a2576040517f08c379a0000000000000000000000000000000000000000000000000000000008152600401610899906139a0565b60405180910390fd5b600060036000858152602001908152602001600020549050600080858152602001908152602001600020604051806060016040528083815260200185815260200160008152509080600181540180825580915050600190039060005260206000209060030201600090919091909150600082015181600001556020820151816001019080519060200190610937929190612abb565b50604082015181600201555050837fed8911b3df733b7d5f75724158e54478ea12e30f49c9d31b5261879f5b76586f8285604051610976929190613ac6565b60405180910390a26003600085815260200190815260200160002060008154809291906109a290613e87565b919050555050505050565b6000600454905090565b6001600086815260200190815260200160002060050160009054906101000a900460ff16610a1a576040517f08c379a0000000000000000000000000000000000000000000000000000000008152600401610a1190613a40565b60405180910390fd5b818111610a5c576040517f08c379a0000000000000000000000000000000000000000000000000000000008152600401610a53906139e0565b60405180910390fd5b600060016000878152602001908152602001600020905084816001019080519060200190610a8b929190612abb565b5083816002019080519060200190610aa4929190612abb565b50828160030181905550818160040181905550857fa2d9d8c5841973b54ed4f74f5af3f8562d96eabc010602dadae72988f119f03686604051610ae7919061393e565b60405180910390a2505050505050565b6001600084815260200190815260200160002060050160009054906101000a900460ff16610b5a576040517f08c379a0000000000000000000000000000000000000000000000000000000008152600401610b5190613a40565b60405180910390fd5b6000815111610b9e576040517f08c379a0000000000000000000000000000000000000000000000000000000008152600401610b95906139a0565b60405180910390fd5b600080600085815260200190815260200160002090506000805b8280549050811015610ccb5784838281548110610bfe577f4e487b7100000000000000000000000000000000000000000000000000000000600052603260045260246000fd5b9060005260206000209060030201600001541415610cb85783838281548110610c50577f4e487b7100000000000000000000000000000000000000000000000000000000600052603260045260246000fd5b90600052602060002090600302016001019080519060200190610c74929190612abb565b5060019150857f86b718c08dcedbcb4daabb5f4d7a8e80b21c9a411f63c373d38a16a8187383268686604051610cab929190613ac6565b60405180910390a2610ccb565b8080610cc390613e87565b915050610bb8565b5080610d0c576040517f08c379a0000000000000000000000000000000000000000000000000000000008152600401610d0390613a00565b60405180910390fd5b5050505050565b6060600080838152602001908152602001600020805480602002602001604051908101604052809291908181526020016000905b82821015610e1f578382906000526020600020906003020160405180606001604052908160008201548152602001600182018054610d8490613e55565b80601f0160208091040260200160405190810160405280929190818152602001828054610db090613e55565b8015610dfd5780601f10610dd257610100808354040283529160200191610dfd565b820191906000526020600020905b815481529060010190602001808311610de057829003601f168201915b5050505050815260200160028201548152505081526020019060010190610d47565b505050509050919050565b60606000600160008481526020019081526020016000206040518060c001604052908160008201548152602001600182018054610e6690613e55565b80601f0160208091040260200160405190810160405280929190818152602001828054610e9290613e55565b8015610edf5780601f10610eb457610100808354040283529160200191610edf565b820191906000526020600020905b815481529060010190602001808311610ec257829003601f168201915b50505050508152602001600282018054610ef890613e55565b80601f0160208091040260200160405190810160405280929190818152602001828054610f2490613e55565b8015610f715780601f10610f4657610100808354040283529160200191610f71565b820191906000526020600020905b815481529060010190602001808311610f5457829003601f168201915b5050505050815260200160038201548152602001600482015481526020016005820160009054906101000a900460ff1615151515815250509050600081608001514211905060008260a001511590508180610fc95750805b611008576040517f08c379a0000000000000000000000000000000000000000000000000000000008152600401610fff90613960565b60405180910390fd5b600080868152602001908152602001600020805480602002602001604051908101604052809291908181526020016000905b8282101561111257838290600052602060002090600302016040518060600160405290816000820154815260200160018201805461107790613e55565b80601f01602080910402602001604051908101604052809291908181526020018280546110a390613e55565b80156110f05780601f106110c5576101008083540402835291602001916110f0565b820191906000526020600020905b8154815290600101906020018083116110d357829003601f168201915b505050505081526020016002820154815250508152602001906001019061103a565b505050509350505050919050565b60045481565b60036020528060005260406000206000915090505481565b6060600560008373ffffffffffffffffffffffffffffffffffffffff1673ffffffffffffffffffffffffffffffffffffffff168152602001908152602001600020805480602002602001604051908101604052809291908181526020016000905b828210156113995783829060005260206000209060090201604051806101200160405290816000820160009054906101000a900473ffffffffffffffffffffffffffffffffffffffff1673ffffffffffffffffffffffffffffffffffffffff1673ffffffffffffffffffffffffffffffffffffffff1681526020016001820154815260200160028201805461123390613e55565b80601f016020809104026020016040519081016040528092919081815260200182805461125f90613e55565b80156112ac5780601f10611281576101008083540402835291602001916112ac565b820191906000526020600020905b81548152906001019060200180831161128f57829003601f168201915b5050505050815260200160038201548152602001600482015481526020016005820180546112d990613e55565b80601f016020809104026020016040519081016040528092919081815260200182805461130590613e55565b80156113525780601f1061132757610100808354040283529160200191611352565b820191906000526020600020905b81548152906001019060200180831161133557829003601f168201915b50505050508152602001600682015481526020016007820160009054906101000a900460ff161515151581526020016008820154815250508152602001906001019061119f565b505050509050919050565b60016020528060005260406000206000915090508060000154908060010180546113cd90613e55565b80601f01602080910402602001604051908101604052809291908181526020018280546113f990613e55565b80156114465780601f1061141b57610100808354040283529160200191611446565b820191906000526020600020905b81548152906001019060200180831161142957829003601f168201915b50505050509080600201805461145b90613e55565b80601f016020809104026020016040519081016040528092919081815260200182805461148790613e55565b80156114d45780601f106114a9576101008083540402835291602001916114d4565b820191906000526020600020905b8154815290600101906020018083116114b757829003601f168201915b5050505050908060030154908060040154908060050160009054906101000a900460ff16905086565b6000602052816000526040600020818154811061151957600080fd5b90600052602060002090600302016000915091505080600001549080600101805461154390613e55565b80601f016020809104026020016040519081016040528092919081815260200182805461156f90613e55565b80156115bc5780601f10611591576101008083540402835291602001916115bc565b820191906000526020600020905b81548152906001019060200180831161159f57829003601f168201915b5050505050908060020154905083565b81811161160e576040517f08c379a0000000000000000000000000000000000000000000000000000000008152600401611605906139e0565b60405180910390fd5b6040518060c0016040528060045481526020018581526020018481526020018381526020018281526020016001151581525060016000600454815260200190815260200160002060008201518160000155602082015181600101908051906020019061167b929190612abb565b506040820151816002019080519060200190611698929190612abb565b50606082015181600301556080820151816004015560a08201518160050160006101000a81548160ff0219169083151502179055509050506004547f52be7c4e77b4de76b7607d621492061fe13b58597e72dfb5e51ab8f6187ed14185604051611702919061393e565b60405180910390a26004600081548092919061171d90613e87565b919050555050505050565b611730612b41565b600160008381526020019081526020016000206040518060c00160405290816000820154815260200160018201805461176890613e55565b80601f016020809104026020016040519081016040528092919081815260200182805461179490613e55565b80156117e15780601f106117b6576101008083540402835291602001916117e1565b820191906000526020600020905b8154815290600101906020018083116117c457829003601f168201915b505050505081526020016002820180546117fa90613e55565b80601f016020809104026020016040519081016040528092919081815260200182805461182690613e55565b80156118735780601f1061184857610100808354040283529160200191611873565b820191906000526020600020905b81548152906001019060200180831161185657829003601f168201915b5050505050815260200160038201548152602001600482015481526020016005820160009054906101000a900460ff1615151515815250509050919050565b600060608473ffffffffffffffffffffffffffffffffffffffff1683857f81e8a4a1b3d767d09c3a78722df4ad92b96240bbec327e49a5d65797e883f54660405160405180910390a46000600160008681526020019081526020016000209050847fdea44d67a46194a3aaabab19395620458bd58c28717bf536e61631d3cf9f23ef8260050160009054906101000a900460ff168360030154846004015460405161195f93929190613907565b60405180910390a260008060008781526020019081526020016000209050857f2973f0bd9d3de877446bb49e43f0f7f1f5c5bb7c8bcda49917cd989f3b94399782805490506040516119b19190613a82565b60405180910390a28160050160009054906101000a900460ff16611a5b57857f267b91f53e29e6a55e1ad2064a6991cecfb4cab08d75b090352cd00f650e65fb8360050160009054906101000a900460ff16604051611a10919061388e565b60405180910390a260006040518060400160405280601681526020017f456c656374696f6e206973206e6f74206163746976650000000000000000000081525093509350505061234b565b857f267b91f53e29e6a55e1ad2064a6991cecfb4cab08d75b090352cd00f650e65fb8360050160009054906101000a900460ff16604051611a9c919061388e565b60405180910390a26000429050867f08f9597abbc72466b896b5de2e99036c747c2838184bc394d2da4d44414914ee8285600301548660040154604051611ae593929190613c56565b60405180910390a28260030154811015611b3d5760006040518060400160405280601681526020017f566f74696e6720686173206e6f742073746172746564000000000000000000008152509450945050505061234b565b8260040154811115611b8d5760006040518060400160405280601081526020017f566f74696e672068617320656e646564000000000000000000000000000000008152509450945050505061234b565b6002600088815260200190815260200160002060008973ffffffffffffffffffffffffffffffffffffffff1673ffffffffffffffffffffffffffffffffffffffff16815260200190815260200160002060009054906101000a900460ff1615611cbd578773ffffffffffffffffffffffffffffffffffffffff16877f54f74ffcc98806ee8d65db01c3b2a0a65aefa16fc6a688ba5cc90cf42ad89b926001604051611c38919061388e565b60405180910390a37f4f9f53c1f4303a292fd2a685644a9e5c24787a4714fca20c04cc3e963256ecc18789604051611c71929190613a9d565b60405180910390a160006040518060400160405280601781526020017f566f7465722068617320616c726561647920766f7465640000000000000000008152509450945050505061234b565b8773ffffffffffffffffffffffffffffffffffffffff16877f54f74ffcc98806ee8d65db01c3b2a0a65aefa16fc6a688ba5cc90cf42ad89b926000604051611d05919061388e565b60405180910390a3600088888842604051602001611d269493929190613761565b60405160208183030381529060405280519060200120905060006040518061012001604052808b73ffffffffffffffffffffffffffffffffffffffff1681526020018a8152602001866001018054611d7d90613e55565b80601f0160208091040260200160405190810160405280929190818152602001828054611da990613e55565b8015611df65780601f10611dcb57610100808354040283529160200191611df6565b820191906000526020600020905b815481529060010190602001808311611dd957829003601f168201915b5050505050815260200186600301548152602001898152602001604051806020016040528060008152508152602001428152602001600115158152602001838152509050600560008b73ffffffffffffffffffffffffffffffffffffffff1673ffffffffffffffffffffffffffffffffffffffff16815260200190815260200160002081908060018154018082558091505060019003906000526020600020906009020160009091909190915060008201518160000160006101000a81548173ffffffffffffffffffffffffffffffffffffffff021916908373ffffffffffffffffffffffffffffffffffffffff160217905550602082015181600101556040820151816002019080519060200190611f10929190612abb565b50606082015181600301556080820151816004015560a0820151816005019080519060200190611f41929190612abb565b5060c0820151816006015560e08201518160070160006101000a81548160ff021916908315150217905550610100820151816008015550508973ffffffffffffffffffffffffffffffffffffffff16888a7f65d454d478da372551c82c6c75a03804bc30df370b0edebfd72aaabca9c2e6e142604051611fc19190613a82565b60405180910390a46000611fd58a8a6129fa565b9050897f73ef868bbfa62b86bf139e017cb76d9b79578bf53a601c3a5c1c4eebbfcb427d8a83604051612009929190613c2d565b60405180910390a27fffffffffffffffffffffffffffffffffffffffffffffffffffffffffffffffff8114156120805760006040518060400160405280601881526020017f43616e64696461746520646f6573206e6f7420657869737400000000000000008152509750975050505050505061234b565b8481815481106120b9577f4e487b7100000000000000000000000000000000000000000000000000000000600052603260045260246000fd5b906000526020600020906003020160020160008154809291906120db90613e87565b9190505550600085828154811061211b577f4e487b7100000000000000000000000000000000000000000000000000000000600052603260045260246000fd5b90600052602060002090600302016002015490508a7f87080f1144298d7149e90d2ce8171aca1d0eaf68d9cb43da96c6e87423c2254b8b83604051612161929190613c2d565b60405180910390a26001600260008d815260200190815260200160002060008e73ffffffffffffffffffffffffffffffffffffffff1673ffffffffffffffffffffffffffffffffffffffff16815260200190815260200160002060006101000a81548160ff0219169083151502179055508b73ffffffffffffffffffffffffffffffffffffffff168b7f33da46b59def1f1db313dc6c93204c7abed292dde6b175ad5b247a0f0f2b21b860405160405180910390a38b73ffffffffffffffffffffffffffffffffffffffff168a8c7f65d454d478da372551c82c6c75a03804bc30df370b0edebfd72aaabca9c2e6e14260405161225e9190613a82565b60405180910390a48b73ffffffffffffffffffffffffffffffffffffffff168a8c7f2075aa5c7097c6ae3bb265700bfbbb92e48fccf6c8fdf706d4c6066bb6be4a6c426040516122ae9190613a82565b60405180910390a48b73ffffffffffffffffffffffffffffffffffffffff168a8c7f2df2445ac478160f7dfb415e05bd50c27ae4ecd470b58cf3e6e23e09cc9ff7ed60016040516122ff91906138d9565b60405180910390a460016040518060400160405280601681526020017f566f74652063617374207375636365737366756c6c790000000000000000000081525098509850505050505050505b935093915050565b6001600083815260200190815260200160002060050160009054906101000a900460ff166123b6576040517f08c379a00000000000000000000000000000000000000000000000000000000081526004016123ad90613a40565b60405180910390fd5b6000806000848152602001908152602001600020905060007fffffffffffffffffffffffffffffffffffffffffffffffffffffffffffffffff90506000805b83805490508110156124aa578484828154811061243b577f4e487b7100000000000000000000000000000000000000000000000000000000600052603260045260246000fd5b90600052602060002090600302016000015414156124975780925060019150857f48bf3ef4944e20b74a7ae7804d664a8e9ba28141c5fc26163c87f7fbc9e90e2f8660405161248a9190613a82565b60405180910390a26124aa565b80806124a290613e87565b9150506123f5565b50806124eb576040517f08c379a00000000000000000000000000000000000000000000000000000000081526004016124e290613a00565b60405180910390fd5b600183805490506124fc9190613d8d565b8210156125d95782600184805490506125159190613d8d565b8154811061254c577f4e487b7100000000000000000000000000000000000000000000000000000000600052603260045260246000fd5b9060005260206000209060030201838381548110612593577f4e487b7100000000000000000000000000000000000000000000000000000000600052603260045260246000fd5b90600052602060002090600302016000820154816000015560018201816001019080546125bf90613e55565b6125ca929190612b79565b50600282015481600201559050505b82805480612610577f4e487b7100000000000000000000000000000000000000000000000000000000600052603160045260246000fd5b600190038181906000526020600020906003020160008082016000905560018201600061263d9190612c06565b6002820160009055505090555050505050565b6005602052816000526040600020818154811061266c57600080fd5b9060005260206000209060090201600091509150508060000160009054906101000a900473ffffffffffffffffffffffffffffffffffffffff16908060010154908060020180546126bc90613e55565b80601f01602080910402602001604051908101604052809291908181526020018280546126e890613e55565b80156127355780601f1061270a57610100808354040283529160200191612735565b820191906000526020600020905b81548152906001019060200180831161271857829003601f168201915b50505050509080600301549080600401549080600501805461275690613e55565b80601f016020809104026020016040519081016040528092919081815260200182805461278290613e55565b80156127cf5780601f106127a4576101008083540402835291602001916127cf565b820191906000526020600020905b8154815290600101906020018083116127b257829003601f168201915b5050505050908060060154908060070160009054906101000a900460ff16908060080154905089565b60026020528160005260406000206020528060005260406000206000915091509054906101000a900460ff1681565b606060016000838152602001908152602001600020600401544211612881576040517f08c379a000000000000000000000000000000000000000000000000000000000815260040161287890613a20565b60405180910390fd5b6001600083815260200190815260200160002060050160009054906101000a900460ff16156128e5576040517f08c379a00000000000000000000000000000000000000000000000000000000081526004016128dc90613980565b60405180910390fd5b600080838152602001908152602001600020805480602002602001604051908101604052809291908181526020016000905b828210156129ef57838290600052602060002090600302016040518060600160405290816000820154815260200160018201805461295490613e55565b80601f016020809104026020016040519081016040528092919081815260200182805461298090613e55565b80156129cd5780601f106129a2576101008083540402835291602001916129cd565b820191906000526020600020905b8154815290600101906020018083116129b057829003601f168201915b5050505050815260200160028201548152505081526020019060010190612917565b505050509050919050565b600080600080858152602001908152602001600020905060005b8180549050811015612a8f5783828281548110612a5a577f4e487b7100000000000000000000000000000000000000000000000000000000600052603260045260246000fd5b9060005260206000209060030201600001541415612a7c578092505050612ab5565b8080612a8790613e87565b915050612a14565b507fffffffffffffffffffffffffffffffffffffffffffffffffffffffffffffffff9150505b92915050565b828054612ac790613e55565b90600052602060002090601f016020900481019282612ae95760008555612b30565b82601f10612b0257805160ff1916838001178555612b30565b82800160010185558215612b30579182015b82811115612b2f578251825591602001919060010190612b14565b5b509050612b3d9190612c46565b5090565b6040518060c0016040528060008152602001606081526020016060815260200160008152602001600081526020016000151581525090565b828054612b8590613e55565b90600052602060002090601f016020900481019282612ba75760008555612bf5565b82601f10612bb85780548555612bf5565b82800160010185558215612bf557600052602060002091601f016020900482015b82811115612bf4578254825591600101919060010190612bd9565b5b509050612c029190612c46565b5090565b508054612c1290613e55565b6000825580601f10612c245750612c43565b601f016020900490600052602060002090810190612c429190612c46565b5b50565b5b80821115612c5f576000816000905550600101612c47565b5090565b6000612c76612c7184613cbe565b613c8d565b905082815260208101848484011115612c8e57600080fd5b612c99848285613e13565b509392505050565b600081359050612cb081613fa9565b92915050565b600082601f830112612cc757600080fd5b8135612cd7848260208601612c63565b91505092915050565b600081359050612cef81613fc0565b92915050565b600060208284031215612d0757600080fd5b6000612d1584828501612ca1565b91505092915050565b60008060408385031215612d3157600080fd5b6000612d3f85828601612ca1565b9250506020612d5085828601612ce0565b9150509250929050565b600080600060608486031215612d6f57600080fd5b6000612d7d86828701612ca1565b9350506020612d8e86828701612ce0565b9250506040612d9f86828701612ce0565b9150509250925092565b60008060008060808587031215612dbf57600080fd5b600085013567ffffffffffffffff811115612dd957600080fd5b612de587828801612cb6565b945050602085013567ffffffffffffffff811115612e0257600080fd5b612e0e87828801612cb6565b9350506040612e1f87828801612ce0565b9250506060612e3087828801612ce0565b91505092959194509250565b600060208284031215612e4e57600080fd5b6000612e5c84828501612ce0565b91505092915050565b60008060408385031215612e7857600080fd5b6000612e8685828601612ce0565b9250506020612e9785828601612ca1565b9150509250929050565b60008060408385031215612eb457600080fd5b6000612ec285828601612ce0565b925050602083013567ffffffffffffffff811115612edf57600080fd5b612eeb85828601612cb6565b9150509250929050565b600080600080600060a08688031215612f0d57600080fd5b6000612f1b88828901612ce0565b955050602086013567ffffffffffffffff811115612f3857600080fd5b612f4488828901612cb6565b945050604086013567ffffffffffffffff811115612f6157600080fd5b612f6d88828901612cb6565b9350506060612f7e88828901612ce0565b9250506080612f8f88828901612ce0565b9150509295509295909350565b60008060408385031215612faf57600080fd5b6000612fbd85828601612ce0565b9250506020612fce85828601612ce0565b9150509250929050565b600080600060608486031215612fed57600080fd5b6000612ffb86828701612ce0565b935050602061300c86828701612ce0565b925050604084013567ffffffffffffffff81111561302957600080fd5b61303586828701612cb6565b9150509250925092565b600061304b8383613580565b905092915050565b600061305f8383613660565b905092915050565b61307081613dc1565b82525050565b61307f81613dc1565b82525050565b61309661309182613dc1565b613ed0565b82525050565b60006130a782613d0e565b6130b18185613d49565b9350836020820285016130c385613cee565b8060005b858110156130ff57848403895281516130e0858261303f565b94506130eb83613d2f565b925060208a019950506001810190506130c7565b50829750879550505050505092915050565b600061311c82613d19565b6131268185613d5a565b93508360208202850161313885613cfe565b8060005b8581101561317457848403895281516131558582613053565b945061316083613d3c565b925060208a0199505060018101905061313c565b50829750879550505050505092915050565b61318f81613dd3565b82525050565b61319e81613dd3565b82525050565b6131ad81613ddf565b82525050565b6131bc81613ddf565b82525050565b60006131cd82613d24565b6131d78185613d6b565b93506131e7818560208601613e22565b6131f081613f8b565b840191505092915050565b600061320682613d24565b6132108185613d7c565b9350613220818560208601613e22565b61322981613f8b565b840191505092915050565b6000613241602e83613d7c565b91507f566f74696e67206973207374696c6c206f6e676f696e6720616e6420656c656360008301527f74696f6e206973206163746976650000000000000000000000000000000000006020830152604082019050919050565b60006132a7601283613d7c565b91507f456c656374696f6e2068617320656e64656400000000000000000000000000006000830152602082019050919050565b60006132e7601883613d7c565b91507f456c656374696f6e206973207374696c6c2061637469766500000000000000006000830152602082019050919050565b6000613327601a83613d7c565b91507f43616e646964617465206e616d652069732072657175697265640000000000006000830152602082019050919050565b6000613367601683613d7c565b91507f566f74652063617374207375636365737366756c6c79000000000000000000006000830152602082019050919050565b60006133a7601783613d7c565b91507f456c656374696f6e20646f6573206e6f742065786973740000000000000000006000830152602082019050919050565b60006133e7602183613d7c565b91507f456e642064617465206d7573742062652061667465722073746172742064617460008301527f65000000000000000000000000000000000000000000000000000000000000006020830152604082019050919050565b600061344d601883613d7c565b91507f43616e64696461746520646f6573206e6f7420657869737400000000000000006000830152602082019050919050565b600061348d601283613d7c565b91507f456c656374696f6e20697320636c6f73656400000000000000000000000000006000830152602082019050919050565b60006134cd601c83613d7c565b91507f456c656374696f6e20686173206e6f74207374617274656420796574000000006000830152602082019050919050565b600061350d601483613d7c565b91507f566f74696e6720686173206e6f7420656e6465640000000000000000000000006000830152602082019050919050565b600061354d601683613d7c565b91507f456c656374696f6e206973206e6f7420616374697665000000000000000000006000830152602082019050919050565b6000606083016000830151613598600086018261372c565b50602083015184820360208601526135b082826131c2565b91505060408301516135c5604086018261372c565b508091505092915050565b600060c0830160008301516135e8600086018261372c565b506020830151848203602086015261360082826131c2565b9150506040830151848203604086015261361a82826131c2565b915050606083015161362f606086018261372c565b506080830151613642608086018261372c565b5060a083015161365560a0860182613186565b508091505092915050565b6000610120830160008301516136796000860182613067565b50602083015161368c602086018261372c565b50604083015184820360408601526136a482826131c2565b91505060608301516136b9606086018261372c565b5060808301516136cc608086018261372c565b5060a083015184820360a08601526136e482826131c2565b91505060c08301516136f960c086018261372c565b5060e083015161370c60e0860182613186565b506101008301516137216101008601826131a4565b508091505092915050565b61373581613e09565b82525050565b61374481613e09565b82525050565b61375b61375682613e09565b613ef4565b82525050565b600061376d8287613085565b60148201915061377d828661374a565b60208201915061378d828561374a565b60208201915061379d828461374a565b60208201915081905095945050505050565b6000610120820190506137c5600083018c613076565b6137d2602083018b61373b565b81810360408301526137e4818a6131fb565b90506137f3606083018961373b565b613800608083018861373b565b81810360a083015261381281876131fb565b905061382160c083018661373b565b61382e60e0830185613195565b61383c6101008301846131b3565b9a9950505050505050505050565b60006020820190508181036000830152613864818461309c565b905092915050565b600060208201905081810360008301526138868184613111565b905092915050565b60006020820190506138a36000830184613195565b92915050565b60006040820190506138be6000830185613195565b81810360208301526138d081846131fb565b90509392505050565b60006040820190506138ee6000830184613195565b81810360208301526138ff8161335a565b905092915050565b600060608201905061391c6000830186613195565b613929602083018561373b565b613936604083018461373b565b949350505050565b6000602082019050818103600083015261395881846131fb565b905092915050565b6000602082019050818103600083015261397981613234565b9050919050565b60006020820190508181036000830152613999816132da565b9050919050565b600060208201905081810360008301526139b98161331a565b9050919050565b600060208201905081810360008301526139d98161339a565b9050919050565b600060208201905081810360008301526139f9816133da565b9050919050565b60006020820190508181036000830152613a1981613440565b9050919050565b60006020820190508181036000830152613a3981613500565b9050919050565b60006020820190508181036000830152613a5981613540565b9050919050565b60006020820190508181036000830152613a7a81846135d0565b905092915050565b6000602082019050613a97600083018461373b565b92915050565b6000604082019050613ab2600083018561373b565b613abf6020830184613076565b9392505050565b6000604082019050613adb600083018561373b565b8181036020830152613aed81846131fb565b90509392505050565b600060c082019050613b0b600083018961373b565b8181036020830152613b1d81886131fb565b90508181036040830152613b3181876131fb565b9050613b40606083018661373b565b613b4d608083018561373b565b613b5a60a0830184613195565b979650505050505050565b6000606082019050613b7a600083018661373b565b8181036020830152613b8c81856131fb565b9050613b9b604083018461373b565b949350505050565b6000604082019050613bb8600083018461373b565b8181036020830152613bc98161329a565b905092915050565b6000604082019050613be6600083018461373b565b8181036020830152613bf781613480565b905092915050565b6000604082019050613c14600083018461373b565b8181036020830152613c25816134c0565b905092915050565b6000604082019050613c42600083018561373b565b613c4f602083018461373b565b9392505050565b6000606082019050613c6b600083018661373b565b613c78602083018561373b565b613c85604083018461373b565b949350505050565b6000604051905081810181811067ffffffffffffffff82111715613cb457613cb3613f5c565b5b8060405250919050565b600067ffffffffffffffff821115613cd957613cd8613f5c565b5b601f19601f8301169050602081019050919050565b6000819050602082019050919050565b6000819050602082019050919050565b600081519050919050565b600081519050919050565b600081519050919050565b6000602082019050919050565b6000602082019050919050565b600082825260208201905092915050565b600082825260208201905092915050565b600082825260208201905092915050565b600082825260208201905092915050565b6000613d9882613e09565b9150613da383613e09565b925082821015613db657613db5613efe565b5b828203905092915050565b6000613dcc82613de9565b9050919050565b60008115159050919050565b6000819050919050565b600073ffffffffffffffffffffffffffffffffffffffff82169050919050565b6000819050919050565b82818337600083830152505050565b60005b83811015613e40578082015181840152602081019050613e25565b83811115613e4f576000848401525b50505050565b60006002820490506001821680613e6d57607f821691505b60208210811415613e8157613e80613f2d565b5b50919050565b6000613e9282613e09565b91507fffffffffffffffffffffffffffffffffffffffffffffffffffffffffffffffff821415613ec557613ec4613efe565b5b600182019050919050565b6000613edb82613ee2565b9050919050565b6000613eed82613f9c565b9050919050565b6000819050919050565b7f4e487b7100000000000000000000000000000000000000000000000000000000600052601160045260246000fd5b7f4e487b7100000000000000000000000000000000000000000000000000000000600052602260045260246000fd5b7f4e487b7100000000000000000000000000000000000000000000000000000000600052604160045260246000fd5b6000601f19601f8301169050919050565b60008160601b9050919050565b613fb281613dc1565b8114613fbd57600080fd5b50565b613fc981613e09565b8114613fd457600080fd5b5056fea26469706673582212209276ccdad42f8cf4a2db6705adbd761009c3e56088c0a76366d8436698c456cf64736f6c63430008000033",
  "immutableReferences": {},
  "source": "// SPDX-License-Identifier: MIT\npragma solidity ^0.8.0;\n\ncontract Voting {\n    // ========================================\n    // |               Structures             |\n    // ========================================\n\n    struct Candidate {\n        uint id;\n        string name;\n        uint voteCount;\n    }\n\n    struct Election {\n        uint id;\n        string title;\n        string description;\n        uint startDate;\n        uint endDate;\n        bool isActive;\n    }\n\n    struct VoteRecord {\n        address voterAddress;      // Voter's public address\n        uint256 electionId;       // Unique identifier for the election\n        string electionName;       // Name of the election\n        uint256 electionDate;      // Date of the election\n        uint256 candidateId;       // Unique identifier for the candidate\n        string candidateName;      // Name of the candidate\n        uint256 timestamp;         // When the vote was cast\n        bool confirmationStatus;   // Vote confirmation status\n        bytes32 transactionHash;    // Transaction hash of the vote\n    }\n\n    // ========================================\n    // |             State Variables          |\n    // ========================================\n\n    // Mapping from Election ID to an array of Candidates\n    mapping(uint => Candidate[]) public candidatesByElection;\n\n    // Mapping from Election ID to Election details\n    mapping(uint => Election) public elections;\n\n    // Mapping from Election ID to Voter Address to Voted Status\n    mapping(uint => mapping(address => bool)) public votes;\n\n    // Mapping from Election ID to next Candidate ID\n    mapping(uint => uint) public nextCandidateIdByElection;\n\n    // Counter for the next Election ID\n    uint public nextElectionId;\n\n    mapping(address => VoteRecord[]) public votingHistory;\n\n    // ========================================\n    // |                Events                |\n    // ========================================\n\n    // Election Events\n    event ElectionCreated(uint indexed electionId, string title);\n    event ElectionUpdated(uint indexed electionId, string title);\n    event ElectionClosed(uint indexed electionId);\n\n    // Candidate Events\n    event CandidateAdded(uint indexed electionId, uint candidateId, string name);\n    event CandidateUpdated(uint indexed electionId, uint candidateId, string name);\n    event CandidateDeleted(uint indexed electionId, uint candidateId);\n\n    // Voting Events\n    event VoteCastingInitiated(uint indexed electionId, uint indexed candidateId, address indexed voter);\n    event VoteCastingCompleted(uint indexed electionId, uint indexed candidateId, address indexed voter, bool success, string message);\n    event ElectionRetrieved(uint indexed electionId, bool isActive, uint startDate, uint endDate);\n    event CandidatesRetrieved(uint indexed electionId, uint numberOfCandidates);\n    event ElectionStatusChecked(uint indexed electionId, bool isActive);\n    event VotingPeriodChecked(uint indexed electionId, uint currentTimestamp, uint startDate, uint endDate);\n    event VoterEligibilityChecked(uint indexed electionId, address indexed voter, bool hasVoted);\n    event CandidateIndexFound(uint indexed electionId, uint candidateId, uint candidateIndex);\n    event VoteCountIncremented(uint indexed electionId, uint candidateId, uint newVoteCount);\n    event VoterMarked(uint indexed electionId, address indexed voter);\n    event VoteCasted(uint indexed electionId, uint indexed candidateId, address indexed voter, uint256 timestamp);\n    event VoteCastedEvent(uint indexed electionId, uint indexed candidateId, address indexed voter, uint256 timestamp);\n    event ElectionNotStarted(uint electionId, string message);\n    event ElectionNotActive(uint electionId, string message);\n    event VotingEnded(uint electionId, string message);\n    event CandidateDoesNotExist(uint electionId, uint candidateId);\n    event AlreadyVoted(uint electionId, address voter);\n    event AlreadyVotedMessage(uint electionId, address voter);\n\n\n    // ========================================\n    // |               Constructor            |\n    // ========================================\n\n    constructor() {\n        // Optionally initialize some state variables here\n        // For example: nextElectionId = 1;\n    }\n\n    // ========================================\n    // |            Election Functions        |\n    // ========================================\n\n    /**\n     * @dev Creates a new election.\n     * @param _title The title of the election.\n     * @param _description The description of the election.\n     * @param _startDate The start timestamp of the election.\n     * @param _endDate The end timestamp of the election.\n     */\n    function createElection(\n        string memory _title,\n        string memory _description,\n        uint256 _startDate,\n        uint256 _endDate\n    ) public {\n        require(_endDate > _startDate, \"End date must be after start date\");\n\n        elections[nextElectionId] = Election({\n            id: nextElectionId,\n            title: _title,\n            description: _description,\n            startDate: _startDate,\n            endDate: _endDate,\n            isActive: true\n        });\n\n        emit ElectionCreated(nextElectionId, _title);\n        nextElectionId++;\n    }\n\n    /**\n     * @dev Updates the details of an existing election.\n     * @param _electionId The ID of the election to update.\n     * @param _title The new title of the election.\n     * @param _description The new description of the election.\n     * @param _startDate The new start timestamp of the election.\n     * @param _endDate The new end timestamp of the election.\n     */\n    function updateElection(\n        uint _electionId,\n        string memory _title,\n        string memory _description,\n        uint _startDate,\n        uint _endDate\n    ) public {\n        require(elections[_electionId].isActive, \"Election is not active\");\n        require(_endDate > _startDate, \"End date must be after start date\");\n\n        Election storage election = elections[_electionId];\n        election.title = _title;\n        election.description = _description;\n        election.startDate = _startDate;\n        election.endDate = _endDate;\n\n        emit ElectionUpdated(_electionId, _title);\n    }\n\n    /**\n     * @dev Closes an active election.\n     * @param _electionId The ID of the election to close.\n     */\n    function closeElection(uint256 _electionId) public {\n        // Ensure the election exists\n        require(elections[_electionId].endDate != 0, \"Election does not exist\");\n\n        // Set the election as inactive\n        elections[_electionId].isActive = false;\n\n        // Emit an event to signal that the election has been closed\n        emit ElectionClosed(_electionId);\n    }\n\n    /**\n     * @dev Checks the status of an election.\n     * @param _electionId The ID of the election to check.\n     * @return A string representing the election status.\n     */\n    function checkElectionStatus(uint _electionId) public returns (string memory) {\n        Election storage election = elections[_electionId];\n        emit ElectionRetrieved(_electionId, election.isActive, election.startDate, election.endDate);\n\n        if (!election.isActive) {\n            emit ElectionNotActive(_electionId, \"Election is closed\");\n            return \"Election is closed\";\n        }\n\n        if (block.timestamp < election.startDate) {\n            emit ElectionNotStarted(_electionId, \"Election has not started yet\");\n            return \"Election has not started yet\";\n        }\n\n        if (block.timestamp > election.endDate) {\n            emit VotingEnded(_electionId, \"Election has ended\");\n            return \"Election has ended\";\n        }\n\n        emit ElectionStatusChecked(_electionId, election.isActive);\n        return \"Election is ongoing\";\n    }\n\n    /**\n     * @dev Retrieves the total number of elections created.\n     * @return The count of elections.\n     */\n    function getElectionCount() public view returns (uint) {\n        return nextElectionId;\n    }\n\n    // ========================================\n    // |           Candidate Functions        |\n    // ========================================\n\n    /**\n     * @dev Adds a new candidate to an election.\n     * @param _electionId The ID of the election.\n     * @param _name The name of the candidate.\n     */\n    function addCandidate(uint _electionId, string memory _name) public {\n        Election storage election = elections[_electionId];\n        emit ElectionRetrieved(_electionId, election.isActive, election.startDate, election.endDate);\n\n        require(election.isActive, \"Election is not active\");\n        require(bytes(_name).length > 0, \"Candidate name is required\");\n\n        uint candidateId = nextCandidateIdByElection[_electionId];\n        candidatesByElection[_electionId].push(Candidate({\n            id: candidateId,\n            name: _name,\n            voteCount: 0\n        }));\n\n        emit CandidateAdded(_electionId, candidateId, _name);\n        nextCandidateIdByElection[_electionId]++;\n    }\n\n    /**\n     * @dev Updates the details of an existing candidate.\n     * @param _electionId The ID of the election.\n     * @param _candidateId The ID of the candidate to update.\n     * @param _name The new name of the candidate.\n     */\n    function updateCandidate(\n        uint _electionId,\n        uint _candidateId,\n        string memory _name\n    ) public {\n        require(elections[_electionId].isActive, \"Election is not active\");\n        require(bytes(_name).length > 0, \"Candidate name is required\");\n\n        Candidate[] storage electionCandidates = candidatesByElection[_electionId];\n        bool candidateExists = false;\n\n        for (uint i = 0; i < electionCandidates.length; i++) {\n            if (electionCandidates[i].id == _candidateId) {\n                electionCandidates[i].name = _name;\n                candidateExists = true;\n                emit CandidateUpdated(_electionId, _candidateId, _name);\n                break;\n            }\n        }\n\n        require(candidateExists, \"Candidate does not exist\");\n    }\n\n    /**\n     * @dev Deletes a candidate from an election.\n     * @param _electionId The ID of the election.\n     * @param _candidateId The ID of the candidate to delete.\n     */\n    function deleteCandidate(uint _electionId, uint _candidateId) public {\n        require(elections[_electionId].isActive, \"Election is not active\");\n\n        Candidate[] storage electionCandidates = candidatesByElection[_electionId];\n        uint indexToDelete = type(uint).max;\n        bool candidateExists = false;\n\n        for (uint i = 0; i < electionCandidates.length; i++) {\n            if (electionCandidates[i].id == _candidateId) {\n                indexToDelete = i;\n                candidateExists = true;\n                emit CandidateDeleted(_electionId, _candidateId);\n                break;\n            }\n        }\n\n        require(candidateExists, \"Candidate does not exist\");\n\n        // Swap with the last candidate and remove\n        if (indexToDelete < electionCandidates.length - 1) {\n            electionCandidates[indexToDelete] = electionCandidates[electionCandidates.length - 1];\n        }\n        electionCandidates.pop();\n    }\n\n    // ========================================\n    // |             Voting Functions         |\n    // ========================================\n\n    /**\n     * @dev Casts a vote for a candidate in a specific election.\n     * @param _electionId The ID of the election.\n     * @param _candidateId The ID of the candidate to vote for.\n     */\n    function castVote(address _voter, uint _electionId, uint _candidateId) public returns (bool success, string memory message) {\n    emit VoteCastingInitiated(_electionId, _candidateId, _voter);\n\n    // Retrieve the election and candidates\n    Election storage election = elections[_electionId];\n    emit ElectionRetrieved(_electionId, election.isActive, election.startDate, election.endDate);\n\n    Candidate[] storage electionCandidates = candidatesByElection[_electionId];\n    emit CandidatesRetrieved(_electionId, electionCandidates.length);\n\n    // Ensure the election is active\n    if (!election.isActive) {\n        emit ElectionStatusChecked(_electionId, election.isActive);\n        return (false, \"Election is not active\");\n    }\n    emit ElectionStatusChecked(_electionId, election.isActive);\n\n    // Ensure the current time is within the voting period\n    uint currentTimestamp = block.timestamp;\n    emit VotingPeriodChecked(_electionId, currentTimestamp, election.startDate, election.endDate);\n    \n    if (currentTimestamp < election.startDate) {\n        return (false, \"Voting has not started\");\n    }\n    if (currentTimestamp > election.endDate) {\n        return (false, \"Voting has ended\");\n    }\n\n    // Check if the sender has already voted\n    if (votes[_electionId][_voter]) {\n        emit VoterEligibilityChecked(_electionId, _voter, true); // Voter has already voted\n        emit AlreadyVotedMessage(_electionId, _voter);\n        return (false, \"Voter has already voted\");\n    }\n\n    // If we've reached here, the voter is eligible to vote\n    emit VoterEligibilityChecked(_electionId, _voter, false);\n\n    // Simulate the transaction hash\n    bytes32 simulatedTransactionHash = keccak256(abi.encodePacked(_voter, _electionId, _candidateId, block.timestamp));\n\n    // Record the vote\n    VoteRecord memory newVote = VoteRecord({\n        voterAddress: _voter,\n        electionId: _electionId,\n        electionName: election.title,\n        electionDate: election.startDate,\n        candidateId: _candidateId,\n        candidateName: \"\",  // Placeholder, should be fetched from the candidate details\n        timestamp: block.timestamp,\n        confirmationStatus: true,\n        transactionHash: simulatedTransactionHash\n    });\n\n    votingHistory[_voter].push(newVote);\n    emit VoteCasted(_electionId, _candidateId, _voter, block.timestamp);\n\n    // Find the candidate index\n    uint candidateIndex = findCandidateIndex(_electionId, _candidateId);\n    emit CandidateIndexFound(_electionId, _candidateId, candidateIndex);\n\n    if (candidateIndex == type(uint).max) {\n        return (false, \"Candidate does not exist\");\n    }\n\n    // Increment the vote count for the candidate\n    electionCandidates[candidateIndex].voteCount++;\n    uint newVoteCount = electionCandidates[candidateIndex].voteCount;\n    emit VoteCountIncremented(_electionId, _candidateId, newVoteCount);\n\n    // Mark the sender as having voted\n    votes[_electionId][_voter] = true;\n    emit VoterMarked(_electionId, _voter);\n\n    // Emit the VoteCasted events\n    emit VoteCasted(_electionId, _candidateId, _voter, block.timestamp);\n    emit VoteCastedEvent(_electionId, _candidateId, _voter, block.timestamp);\n\n    // Emit event: Vote casting completed successfully\n    emit VoteCastingCompleted(_electionId, _candidateId, _voter, true, \"Vote cast successfully\");\n\n    return (true, \"Vote cast successfully\");\n}\n\n\n\n    /**\n     * @dev Finds the index of a candidate within an election.\n     * @param _electionId The ID of the election.\n     * @param _candidateId The ID of the candidate.\n     * @return The index of the candidate in the candidates array, or type(uint).max if not found.\n     */\n    function findCandidateIndex(uint _electionId, uint _candidateId) internal view returns (uint) {\n        Candidate[] storage electionCandidates = candidatesByElection[_electionId];\n        for (uint i = 0; i < electionCandidates.length; i++) {\n            if (electionCandidates[i].id == _candidateId) {\n                return i;\n            }\n        }\n        return type(uint).max; // Indicate that the candidate was not found\n    }\n\n    /**\n     * @dev Tallies the votes for a specific election.\n     * @param _electionId The ID of the election.\n     * @return An array of Candidates with their vote counts.\n     */\n    function tallyVotes(uint _electionId) public view returns (Candidate[] memory) {\n        // Fetch election details\n        Election memory election = elections[_electionId];\n\n        // Check if either condition is met\n        bool votingEnded = block.timestamp > election.endDate;\n        bool electionNotActive = !election.isActive;\n\n        require(votingEnded || electionNotActive, \"Voting is still ongoing and election is active\");\n\n        // Return the list of candidates\n        return candidatesByElection[_electionId];\n    }\n\n    // ========================================\n    // |             View Functions           |\n    // ========================================\n\n    /**\n     * @dev Retrieves all candidates for a specific election.\n     * @param _electionId The ID of the election.\n     * @return An array of Candidates.\n     */\n    function getCandidates(uint _electionId) public view returns (Candidate[] memory) {\n        return candidatesByElection[_electionId];\n    }\n\n    /**\n     * @dev Retrieves the details of a specific election.\n     * @param _electionId The ID of the election.\n     * @return The Election struct.\n     */\n    function getElection(uint _electionId) public view returns (Election memory) {\n        return elections[_electionId];\n    }\n\n    /**\n     * @dev Retrieves the election results after voting has ended.\n     * @param _electionId The ID of the election.\n     * @return An array of Candidates with their final vote counts.\n     */\n    function getElectionResults(uint _electionId) public view returns (Candidate[] memory) {\n        require(block.timestamp > elections[_electionId].endDate, \"Voting has not ended\");\n        require(!elections[_electionId].isActive, \"Election is still active\");\n\n        return candidatesByElection[_electionId];\n    }\n\n    // Function to get the voting history of a voter\n    function getVotingHistory(address _voter) public view returns (VoteRecord[] memory) {\n        return votingHistory[_voter];\n    }\n}\n",
  "sourcePath": "/home/ndipelvis/Desktop/Blockchain App/Backend/src/contracts/contracts/ElectionVote.sol",
  "compiler": {
    "name": "solc",
    "version": "0.8.0+commit.c7dfd78e.Emscripten.clang"
  },
  "schemaVersion": "3.4.16",
  "updatedAt": "2024-10-06T20:57:12.789Z",
  "networkType": "ethereum",
  "devdoc": {
    "kind": "dev",
    "methods": {
      "addCandidate(uint256,string)": {
        "details": "Adds a new candidate to an election.",
        "params": {
          "_electionId": "The ID of the election.",
          "_name": "The name of the candidate."
        }
      },
      "castVote(address,uint256,uint256)": {
        "details": "Casts a vote for a candidate in a specific election.",
        "params": {
          "_candidateId": "The ID of the candidate to vote for.",
          "_electionId": "The ID of the election."
        }
      },
      "checkElectionStatus(uint256)": {
        "details": "Checks the status of an election.",
        "params": {
          "_electionId": "The ID of the election to check."
        },
        "returns": {
          "_0": "A string representing the election status."
        }
      },
      "closeElection(uint256)": {
        "details": "Closes an active election.",
        "params": {
          "_electionId": "The ID of the election to close."
        }
      },
      "createElection(string,string,uint256,uint256)": {
        "details": "Creates a new election.",
        "params": {
          "_description": "The description of the election.",
          "_endDate": "The end timestamp of the election.",
          "_startDate": "The start timestamp of the election.",
          "_title": "The title of the election."
        }
      },
      "deleteCandidate(uint256,uint256)": {
        "details": "Deletes a candidate from an election.",
        "params": {
          "_candidateId": "The ID of the candidate to delete.",
          "_electionId": "The ID of the election."
        }
      },
      "getCandidates(uint256)": {
        "details": "Retrieves all candidates for a specific election.",
        "params": {
          "_electionId": "The ID of the election."
        },
        "returns": {
          "_0": "An array of Candidates."
        }
      },
      "getElection(uint256)": {
        "details": "Retrieves the details of a specific election.",
        "params": {
          "_electionId": "The ID of the election."
        },
        "returns": {
          "_0": "The Election struct."
        }
      },
      "getElectionCount()": {
        "details": "Retrieves the total number of elections created.",
        "returns": {
          "_0": "The count of elections."
        }
      },
      "getElectionResults(uint256)": {
        "details": "Retrieves the election results after voting has ended.",
        "params": {
          "_electionId": "The ID of the election."
        },
        "returns": {
          "_0": "An array of Candidates with their final vote counts."
        }
      },
      "tallyVotes(uint256)": {
        "details": "Tallies the votes for a specific election.",
        "params": {
          "_electionId": "The ID of the election."
        },
        "returns": {
          "_0": "An array of Candidates with their vote counts."
        }
      },
      "updateCandidate(uint256,uint256,string)": {
        "details": "Updates the details of an existing candidate.",
        "params": {
          "_candidateId": "The ID of the candidate to update.",
          "_electionId": "The ID of the election.",
          "_name": "The new name of the candidate."
        }
      },
      "updateElection(uint256,string,string,uint256,uint256)": {
        "details": "Updates the details of an existing election.",
        "params": {
          "_description": "The new description of the election.",
          "_electionId": "The ID of the election to update.",
          "_endDate": "The new end timestamp of the election.",
          "_startDate": "The new start timestamp of the election.",
          "_title": "The new title of the election."
        }
      }
    },
    "version": 1
  },
  "userdoc": {
    "kind": "user",
    "methods": {},
    "version": 1
  }
}