{
  "contractName": "Voting",
  "abi": [
    {
      "inputs": [],
      "stateMutability": "nonpayable",
      "type": "constructor"
    },
    {
      "anonymous": false,
      "inputs": [
        {
          "indexed": true,
          "internalType": "uint256",
          "name": "electionId",
          "type": "uint256"
        },
        {
          "indexed": false,
          "internalType": "uint256",
          "name": "candidateId",
          "type": "uint256"
        },
        {
          "indexed": false,
          "internalType": "string",
          "name": "name",
          "type": "string"
        }
      ],
      "name": "CandidateAdded",
      "type": "event"
    },
    {
      "anonymous": false,
      "inputs": [
        {
          "indexed": true,
          "internalType": "uint256",
          "name": "electionId",
          "type": "uint256"
        },
        {
          "indexed": false,
          "internalType": "uint256",
          "name": "candidateId",
          "type": "uint256"
        }
      ],
      "name": "CandidateDeleted",
      "type": "event"
    },
    {
      "anonymous": false,
      "inputs": [
        {
          "indexed": true,
          "internalType": "uint256",
          "name": "electionId",
          "type": "uint256"
        },
        {
          "indexed": false,
          "internalType": "uint256",
          "name": "candidateId",
          "type": "uint256"
        },
        {
          "indexed": false,
          "internalType": "string",
          "name": "name",
          "type": "string"
        }
      ],
      "name": "CandidateUpdated",
      "type": "event"
    },
    {
      "anonymous": false,
      "inputs": [
        {
          "indexed": true,
          "internalType": "uint256",
          "name": "electionId",
          "type": "uint256"
        }
      ],
      "name": "ElectionClosed",
      "type": "event"
    },
    {
      "anonymous": false,
      "inputs": [
        {
          "indexed": true,
          "internalType": "uint256",
          "name": "electionId",
          "type": "uint256"
        },
        {
          "indexed": false,
          "internalType": "string",
          "name": "title",
          "type": "string"
        }
      ],
      "name": "ElectionCreated",
      "type": "event"
    },
    {
      "anonymous": false,
      "inputs": [
        {
          "indexed": true,
          "internalType": "uint256",
          "name": "electionId",
          "type": "uint256"
        },
        {
          "indexed": false,
          "internalType": "string",
          "name": "title",
          "type": "string"
        }
      ],
      "name": "ElectionUpdated",
      "type": "event"
    },
    {
      "anonymous": false,
      "inputs": [
        {
          "indexed": true,
          "internalType": "uint256",
          "name": "electionId",
          "type": "uint256"
        },
        {
          "indexed": true,
          "internalType": "uint256",
          "name": "candidateId",
          "type": "uint256"
        },
        {
          "indexed": true,
          "internalType": "address",
          "name": "voter",
          "type": "address"
        }
      ],
      "name": "VoteCasted",
      "type": "event"
    },
    {
      "inputs": [
        {
          "internalType": "uint256",
          "name": "",
          "type": "uint256"
        },
        {
          "internalType": "uint256",
          "name": "",
          "type": "uint256"
        }
      ],
      "name": "candidatesByElection",
      "outputs": [
        {
          "internalType": "uint256",
          "name": "id",
          "type": "uint256"
        },
        {
          "internalType": "string",
          "name": "name",
          "type": "string"
        },
        {
          "internalType": "uint256",
          "name": "voteCount",
          "type": "uint256"
        }
      ],
      "stateMutability": "view",
      "type": "function",
      "constant": true
    },
    {
      "inputs": [
        {
          "internalType": "uint256",
          "name": "",
          "type": "uint256"
        }
      ],
      "name": "elections",
      "outputs": [
        {
          "internalType": "uint256",
          "name": "id",
          "type": "uint256"
        },
        {
          "internalType": "string",
          "name": "title",
          "type": "string"
        },
        {
          "internalType": "string",
          "name": "description",
          "type": "string"
        },
        {
          "internalType": "uint256",
          "name": "startDate",
          "type": "uint256"
        },
        {
          "internalType": "uint256",
          "name": "endDate",
          "type": "uint256"
        },
        {
          "internalType": "bool",
          "name": "isActive",
          "type": "bool"
        }
      ],
      "stateMutability": "view",
      "type": "function",
      "constant": true
    },
    {
      "inputs": [
        {
          "internalType": "uint256",
          "name": "",
          "type": "uint256"
        }
      ],
      "name": "nextCandidateIdByElection",
      "outputs": [
        {
          "internalType": "uint256",
          "name": "",
          "type": "uint256"
        }
      ],
      "stateMutability": "view",
      "type": "function",
      "constant": true
    },
    {
      "inputs": [],
      "name": "nextElectionId",
      "outputs": [
        {
          "internalType": "uint256",
          "name": "",
          "type": "uint256"
        }
      ],
      "stateMutability": "view",
      "type": "function",
      "constant": true
    },
    {
      "inputs": [
        {
          "internalType": "uint256",
          "name": "",
          "type": "uint256"
        },
        {
          "internalType": "address",
          "name": "",
          "type": "address"
        }
      ],
      "name": "votes",
      "outputs": [
        {
          "internalType": "bool",
          "name": "",
          "type": "bool"
        }
      ],
      "stateMutability": "view",
      "type": "function",
      "constant": true
    },
    {
      "inputs": [
        {
          "internalType": "string",
          "name": "_title",
          "type": "string"
        },
        {
          "internalType": "string",
          "name": "_description",
          "type": "string"
        },
        {
          "internalType": "uint256",
          "name": "_startDate",
          "type": "uint256"
        },
        {
          "internalType": "uint256",
          "name": "_endDate",
          "type": "uint256"
        }
      ],
      "name": "createElection",
      "outputs": [],
      "stateMutability": "nonpayable",
      "type": "function"
    },
    {
      "inputs": [
        {
          "internalType": "uint256",
          "name": "_electionId",
          "type": "uint256"
        },
        {
          "internalType": "string",
          "name": "_title",
          "type": "string"
        },
        {
          "internalType": "string",
          "name": "_description",
          "type": "string"
        },
        {
          "internalType": "uint256",
          "name": "_startDate",
          "type": "uint256"
        },
        {
          "internalType": "uint256",
          "name": "_endDate",
          "type": "uint256"
        }
      ],
      "name": "updateElection",
      "outputs": [],
      "stateMutability": "nonpayable",
      "type": "function"
    },
    {
      "inputs": [
        {
          "internalType": "uint256",
          "name": "_electionId",
          "type": "uint256"
        },
        {
          "internalType": "string",
          "name": "_name",
          "type": "string"
        }
      ],
      "name": "addCandidate",
      "outputs": [],
      "stateMutability": "nonpayable",
      "type": "function"
    },
    {
      "inputs": [
        {
          "internalType": "uint256",
          "name": "_electionId",
          "type": "uint256"
        },
        {
          "internalType": "uint256",
          "name": "_candidateId",
          "type": "uint256"
        },
        {
          "internalType": "string",
          "name": "_name",
          "type": "string"
        }
      ],
      "name": "updateCandidate",
      "outputs": [],
      "stateMutability": "nonpayable",
      "type": "function"
    },
    {
      "inputs": [
        {
          "internalType": "uint256",
          "name": "_electionId",
          "type": "uint256"
        },
        {
          "internalType": "uint256",
          "name": "_candidateId",
          "type": "uint256"
        }
      ],
      "name": "deleteCandidate",
      "outputs": [],
      "stateMutability": "nonpayable",
      "type": "function"
    },
    {
      "inputs": [
        {
          "internalType": "uint256",
          "name": "_electionId",
          "type": "uint256"
        },
        {
          "internalType": "uint256",
          "name": "_candidateId",
          "type": "uint256"
        }
      ],
      "name": "castVote",
      "outputs": [],
      "stateMutability": "nonpayable",
      "type": "function"
    },
    {
      "inputs": [
        {
          "internalType": "uint256",
          "name": "_electionId",
          "type": "uint256"
        }
      ],
      "name": "tallyVotes",
      "outputs": [
        {
          "components": [
            {
              "internalType": "uint256",
              "name": "id",
              "type": "uint256"
            },
            {
              "internalType": "string",
              "name": "name",
              "type": "string"
            },
            {
              "internalType": "uint256",
              "name": "voteCount",
              "type": "uint256"
            }
          ],
          "internalType": "struct Voting.Candidate[]",
          "name": "",
          "type": "tuple[]"
        }
      ],
      "stateMutability": "view",
      "type": "function",
      "constant": true
    },
    {
      "inputs": [
        {
          "internalType": "uint256",
          "name": "_electionId",
          "type": "uint256"
        }
      ],
      "name": "getCandidates",
      "outputs": [
        {
          "components": [
            {
              "internalType": "uint256",
              "name": "id",
              "type": "uint256"
            },
            {
              "internalType": "string",
              "name": "name",
              "type": "string"
            },
            {
              "internalType": "uint256",
              "name": "voteCount",
              "type": "uint256"
            }
          ],
          "internalType": "struct Voting.Candidate[]",
          "name": "",
          "type": "tuple[]"
        }
      ],
      "stateMutability": "view",
      "type": "function",
      "constant": true
    },
    {
      "inputs": [
        {
          "internalType": "uint256",
          "name": "_electionId",
          "type": "uint256"
        }
      ],
      "name": "getElection",
      "outputs": [
        {
          "components": [
            {
              "internalType": "uint256",
              "name": "id",
              "type": "uint256"
            },
            {
              "internalType": "string",
              "name": "title",
              "type": "string"
            },
            {
              "internalType": "string",
              "name": "description",
              "type": "string"
            },
            {
              "internalType": "uint256",
              "name": "startDate",
              "type": "uint256"
            },
            {
              "internalType": "uint256",
              "name": "endDate",
              "type": "uint256"
            },
            {
              "internalType": "bool",
              "name": "isActive",
              "type": "bool"
            }
          ],
          "internalType": "struct Voting.Election",
          "name": "",
          "type": "tuple"
        }
      ],
      "stateMutability": "view",
      "type": "function",
      "constant": true
    },
    {
      "inputs": [
        {
          "internalType": "uint256",
          "name": "_electionId",
          "type": "uint256"
        }
      ],
      "name": "closeElection",
      "outputs": [],
      "stateMutability": "nonpayable",
      "type": "function"
    },
    {
      "inputs": [
        {
          "internalType": "uint256",
          "name": "_electionId",
          "type": "uint256"
        }
      ],
      "name": "getElectionResults",
      "outputs": [
        {
          "components": [
            {
              "internalType": "uint256",
              "name": "id",
              "type": "uint256"
            },
            {
              "internalType": "string",
              "name": "name",
              "type": "string"
            },
            {
              "internalType": "uint256",
              "name": "voteCount",
              "type": "uint256"
            }
          ],
          "internalType": "struct Voting.Candidate[]",
          "name": "",
          "type": "tuple[]"
        }
      ],
      "stateMutability": "view",
      "type": "function",
      "constant": true
    },
    {
      "inputs": [
        {
          "internalType": "uint256",
          "name": "_electionId",
          "type": "uint256"
        }
      ],
      "name": "checkElectionStatus",
      "outputs": [
        {
          "internalType": "string",
          "name": "",
          "type": "string"
        }
      ],
      "stateMutability": "view",
      "type": "function",
      "constant": true
    },
    {
      "inputs": [],
      "name": "getElectionCount",
      "outputs": [
        {
          "internalType": "uint256",
          "name": "",
          "type": "uint256"
        }
      ],
      "stateMutability": "view",
      "type": "function",
      "constant": true
    }
  ],
  "bytecode": "0x608060405234801561001057600080fd5b50612cdf806100206000396000f3fe608060405234801561001057600080fd5b50600436106101165760003560e01c80635313837b116100a25780637ad36e84116100715780637ad36e841461030a5780639d71077714610326578063cf4a606014610356578063d23254b414610372578063e8ededa6146103a257610116565b80635313837b146102555780635c18d4a7146102735780635e6fef01146102a357806373963a9f146102d857610116565b80632c0a3f89116100e95780632c0a3f89146101a157806336af08a5146101bd5780633bb76ef6146101d95780633e39a7a5146101f55780634d318b0e1461022557610116565b806309e33d071461011b5780630b91b25a146101375780631750a3d014610167578063213785a014610183575b600080fd5b61013560048036038101906101309190611fde565b6103d2565b005b610151600480360381019061014c9190611fde565b61048b565b60405161015e9190612741565b60405180910390f35b610181600480360381019061017c9190612043565b6105cb565b005b61018b610782565b60405161019891906128e5565b60405180910390f35b6101bb60048036038101906101b6919061213e565b61078c565b005b6101d760048036038101906101d29190612097565b610abc565b005b6101f360048036038101906101ee919061217a565b610bfc565b005b61020f600480360381019061020a9190611fde565b610e18565b60405161021c9190612704565b60405180910390f35b61023f600480360381019061023a9190611fde565b610f2f565b60405161024c9190612704565b60405180910390f35b61025d611225565b60405161026a91906128e5565b60405180910390f35b61028d60048036038101906102889190611fde565b61122b565b60405161029a91906128e5565b60405180910390f35b6102bd60048036038101906102b89190611fde565b611243565b6040516102cf96959493929190612930565b60405180910390f35b6102f260048036038101906102ed919061213e565b61139c565b6040516103019392919061299f565b60405180910390f35b610324600480360381019061031f9190611f4b565b61146b565b005b610340600480360381019061033b9190611fde565b6115c7565b60405161034d91906128c3565b60405180910390f35b610370600480360381019061036b919061213e565b611751565b005b61038c60048036038101906103879190612007565b611a4e565b6040516103999190612726565b60405180910390f35b6103bc60048036038101906103b79190611fde565b611a7d565b6040516103c99190612704565b60405180910390f35b60006001600083815260200190815260200160002060040154141561042c576040517f08c379a0000000000000000000000000000000000000000000000000000000008152600401610423906127e3565b60405180910390fd5b60006001600083815260200190815260200160002060050160006101000a81548160ff021916908315150217905550807f393c4b8e62f1195313cf17dcf00793c668ddfc35881cd8015559c074f6d61e8360405160405180910390a250565b606060006001600084815260200190815260200160002090508060050160009054906101000a900460ff166104f8576040518060400160405280601281526020017f456c656374696f6e20697320636c6f73656400000000000000000000000000008152509150506105c6565b8060030154421015610542576040518060400160405280601c81526020017f456c656374696f6e20686173206e6f74207374617274656420796574000000008152509150506105c6565b806004015442111561058c576040518060400160405280601281526020017f456c656374696f6e2068617320656e64656400000000000000000000000000008152509150506105c6565b6040518060400160405280601381526020017f456c656374696f6e206973206f6e676f696e67000000000000000000000000008152509150505b919050565b60006001600084815260200190815260200160002090508060050160009054906101000a900460ff16610633576040517f08c379a000000000000000000000000000000000000000000000000000000000815260040161062a90612883565b60405180910390fd5b6000825111610677576040517f08c379a000000000000000000000000000000000000000000000000000000000815260040161066e906127c3565b60405180910390fd5b60006003600085815260200190815260200160002054905060008085815260200190815260200160002060405180606001604052808381526020018581526020016000815250908060018154018082558091505060019003906000526020600020906003020160009091909190915060008201518160000155602082015181600101908051906020019061070c929190611d11565b50604082015181600201555050837fed8911b3df733b7d5f75724158e54478ea12e30f49c9d31b5261879f5b76586f828560405161074b929190612900565b60405180910390a260036000858152602001908152602001600020600081548092919061077790612b94565b919050555050505050565b6000600454905090565b6000600160008481526020019081526020016000209050600080600085815260200190815260200160002090508160050160009054906101000a900460ff1661080a576040517f08c379a000000000000000000000000000000000000000000000000000000000815260040161080190612883565b60405180910390fd5b8160030154421015610851576040517f08c379a0000000000000000000000000000000000000000000000000000000008152600401610848906127a3565b60405180910390fd5b8160040154421115610898576040517f08c379a000000000000000000000000000000000000000000000000000000000815260040161088f90612823565b60405180910390fd5b6002600085815260200190815260200160002060003373ffffffffffffffffffffffffffffffffffffffff1673ffffffffffffffffffffffffffffffffffffffff16815260200190815260200160002060009054906101000a900460ff1615610936576040517f08c379a000000000000000000000000000000000000000000000000000000000815260040161092d906128a3565b60405180910390fd5b60006109428585611c50565b90507fffffffffffffffffffffffffffffffffffffffffffffffffffffffffffffffff8114156109a7576040517f08c379a000000000000000000000000000000000000000000000000000000000815260040161099e90612843565b60405180910390fd5b8181815481106109e0577f4e487b7100000000000000000000000000000000000000000000000000000000600052603260045260246000fd5b90600052602060002090600302016002016000815480929190610a0290612b94565b919050555060016002600087815260200190815260200160002060003373ffffffffffffffffffffffffffffffffffffffff1673ffffffffffffffffffffffffffffffffffffffff16815260200190815260200160002060006101000a81548160ff0219169083151502179055503373ffffffffffffffffffffffffffffffffffffffff1684867ffe9b9fe32c3fe66775687ffbbb055de4489a6f99a6d31665430849156e8d743560405160405180910390a45050505050565b6001600086815260200190815260200160002060050160009054906101000a900460ff16610b1f576040517f08c379a0000000000000000000000000000000000000000000000000000000008152600401610b1690612883565b60405180910390fd5b818111610b61576040517f08c379a0000000000000000000000000000000000000000000000000000000008152600401610b5890612803565b60405180910390fd5b600060016000878152602001908152602001600020905084816001019080519060200190610b90929190611d11565b5083816002019080519060200190610ba9929190611d11565b50828160030181905550818160040181905550857fa2d9d8c5841973b54ed4f74f5af3f8562d96eabc010602dadae72988f119f03686604051610bec9190612741565b60405180910390a2505050505050565b6001600084815260200190815260200160002060050160009054906101000a900460ff16610c5f576040517f08c379a0000000000000000000000000000000000000000000000000000000008152600401610c5690612883565b60405180910390fd5b6000815111610ca3576040517f08c379a0000000000000000000000000000000000000000000000000000000008152600401610c9a906127c3565b60405180910390fd5b600080600085815260200190815260200160002090506000805b8280549050811015610dd05784838281548110610d03577f4e487b7100000000000000000000000000000000000000000000000000000000600052603260045260246000fd5b9060005260206000209060030201600001541415610dbd5783838281548110610d55577f4e487b7100000000000000000000000000000000000000000000000000000000600052603260045260246000fd5b90600052602060002090600302016001019080519060200190610d79929190611d11565b5060019150857f86b718c08dcedbcb4daabb5f4d7a8e80b21c9a411f63c373d38a16a8187383268686604051610db0929190612900565b60405180910390a2610dd0565b8080610dc890612b94565b915050610cbd565b5080610e11576040517f08c379a0000000000000000000000000000000000000000000000000000000008152600401610e0890612843565b60405180910390fd5b5050505050565b6060600080838152602001908152602001600020805480602002602001604051908101604052809291908181526020016000905b82821015610f24578382906000526020600020906003020160405180606001604052908160008201548152602001600182018054610e8990612b62565b80601f0160208091040260200160405190810160405280929190818152602001828054610eb590612b62565b8015610f025780601f10610ed757610100808354040283529160200191610f02565b820191906000526020600020905b815481529060010190602001808311610ee557829003601f168201915b5050505050815260200160028201548152505081526020019060010190610e4c565b505050509050919050565b60606000600160008481526020019081526020016000206040518060c001604052908160008201548152602001600182018054610f6b90612b62565b80601f0160208091040260200160405190810160405280929190818152602001828054610f9790612b62565b8015610fe45780601f10610fb957610100808354040283529160200191610fe4565b820191906000526020600020905b815481529060010190602001808311610fc757829003601f168201915b50505050508152602001600282018054610ffd90612b62565b80601f016020809104026020016040519081016040528092919081815260200182805461102990612b62565b80156110765780601f1061104b57610100808354040283529160200191611076565b820191906000526020600020905b81548152906001019060200180831161105957829003601f168201915b5050505050815260200160038201548152602001600482015481526020016005820160009054906101000a900460ff1615151515815250509050600081608001514211905060008260a0015115905081806110ce5750805b61110d576040517f08c379a000000000000000000000000000000000000000000000000000000000815260040161110490612763565b60405180910390fd5b600080868152602001908152602001600020805480602002602001604051908101604052809291908181526020016000905b8282101561121757838290600052602060002090600302016040518060600160405290816000820154815260200160018201805461117c90612b62565b80601f01602080910402602001604051908101604052809291908181526020018280546111a890612b62565b80156111f55780601f106111ca576101008083540402835291602001916111f5565b820191906000526020600020905b8154815290600101906020018083116111d857829003601f168201915b505050505081526020016002820154815250508152602001906001019061113f565b505050509350505050919050565b60045481565b60036020528060005260406000206000915090505481565b600160205280600052604060002060009150905080600001549080600101805461126c90612b62565b80601f016020809104026020016040519081016040528092919081815260200182805461129890612b62565b80156112e55780601f106112ba576101008083540402835291602001916112e5565b820191906000526020600020905b8154815290600101906020018083116112c857829003601f168201915b5050505050908060020180546112fa90612b62565b80601f016020809104026020016040519081016040528092919081815260200182805461132690612b62565b80156113735780601f1061134857610100808354040283529160200191611373565b820191906000526020600020905b81548152906001019060200180831161135657829003601f168201915b5050505050908060030154908060040154908060050160009054906101000a900460ff16905086565b600060205281600052604060002081815481106113b857600080fd5b9060005260206000209060030201600091509150508060000154908060010180546113e290612b62565b80601f016020809104026020016040519081016040528092919081815260200182805461140e90612b62565b801561145b5780601f106114305761010080835404028352916020019161145b565b820191906000526020600020905b81548152906001019060200180831161143e57829003601f168201915b5050505050908060020154905083565b8181116114ad576040517f08c379a00000000000000000000000000000000000000000000000000000000081526004016114a490612803565b60405180910390fd5b6040518060c0016040528060045481526020018581526020018481526020018381526020018281526020016001151581525060016000600454815260200190815260200160002060008201518160000155602082015181600101908051906020019061151a929190611d11565b506040820151816002019080519060200190611537929190611d11565b50606082015181600301556080820151816004015560a08201518160050160006101000a81548160ff0219169083151502179055509050506004547f52be7c4e77b4de76b7607d621492061fe13b58597e72dfb5e51ab8f6187ed141856040516115a19190612741565b60405180910390a2600460008154809291906115bc90612b94565b919050555050505050565b6115cf611d97565b600160008381526020019081526020016000206040518060c00160405290816000820154815260200160018201805461160790612b62565b80601f016020809104026020016040519081016040528092919081815260200182805461163390612b62565b80156116805780601f1061165557610100808354040283529160200191611680565b820191906000526020600020905b81548152906001019060200180831161166357829003601f168201915b5050505050815260200160028201805461169990612b62565b80601f01602080910402602001604051908101604052809291908181526020018280546116c590612b62565b80156117125780601f106116e757610100808354040283529160200191611712565b820191906000526020600020905b8154815290600101906020018083116116f557829003601f168201915b5050505050815260200160038201548152602001600482015481526020016005820160009054906101000a900460ff1615151515815250509050919050565b6001600083815260200190815260200160002060050160009054906101000a900460ff166117b4576040517f08c379a00000000000000000000000000000000000000000000000000000000081526004016117ab90612883565b60405180910390fd5b6000806000848152602001908152602001600020905060007fffffffffffffffffffffffffffffffffffffffffffffffffffffffffffffffff90506000805b83805490508110156118a85784848281548110611839577f4e487b7100000000000000000000000000000000000000000000000000000000600052603260045260246000fd5b90600052602060002090600302016000015414156118955780925060019150857f48bf3ef4944e20b74a7ae7804d664a8e9ba28141c5fc26163c87f7fbc9e90e2f8660405161188891906128e5565b60405180910390a26118a8565b80806118a090612b94565b9150506117f3565b50806118e9576040517f08c379a00000000000000000000000000000000000000000000000000000000081526004016118e090612843565b60405180910390fd5b600183805490506118fa9190612aa4565b8210156119d75782600184805490506119139190612aa4565b8154811061194a577f4e487b7100000000000000000000000000000000000000000000000000000000600052603260045260246000fd5b9060005260206000209060030201838381548110611991577f4e487b7100000000000000000000000000000000000000000000000000000000600052603260045260246000fd5b90600052602060002090600302016000820154816000015560018201816001019080546119bd90612b62565b6119c8929190611dcf565b50600282015481600201559050505b82805480611a0e577f4e487b7100000000000000000000000000000000000000000000000000000000600052603160045260246000fd5b6001900381819060005260206000209060030201600080820160009055600182016000611a3b9190611e5c565b6002820160009055505090555050505050565b60026020528160005260406000206020528060005260406000206000915091509054906101000a900460ff1681565b606060016000838152602001908152602001600020600401544211611ad7576040517f08c379a0000000000000000000000000000000000000000000000000000000008152600401611ace90612863565b60405180910390fd5b6001600083815260200190815260200160002060050160009054906101000a900460ff1615611b3b576040517f08c379a0000000000000000000000000000000000000000000000000000000008152600401611b3290612783565b60405180910390fd5b600080838152602001908152602001600020805480602002602001604051908101604052809291908181526020016000905b82821015611c45578382906000526020600020906003020160405180606001604052908160008201548152602001600182018054611baa90612b62565b80601f0160208091040260200160405190810160405280929190818152602001828054611bd690612b62565b8015611c235780601f10611bf857610100808354040283529160200191611c23565b820191906000526020600020905b815481529060010190602001808311611c0657829003601f168201915b5050505050815260200160028201548152505081526020019060010190611b6d565b505050509050919050565b600080600080858152602001908152602001600020905060005b8180549050811015611ce55783828281548110611cb0577f4e487b7100000000000000000000000000000000000000000000000000000000600052603260045260246000fd5b9060005260206000209060030201600001541415611cd2578092505050611d0b565b8080611cdd90612b94565b915050611c6a565b507fffffffffffffffffffffffffffffffffffffffffffffffffffffffffffffffff9150505b92915050565b828054611d1d90612b62565b90600052602060002090601f016020900481019282611d3f5760008555611d86565b82601f10611d5857805160ff1916838001178555611d86565b82800160010185558215611d86579182015b82811115611d85578251825591602001919060010190611d6a565b5b509050611d939190611e9c565b5090565b6040518060c0016040528060008152602001606081526020016060815260200160008152602001600081526020016000151581525090565b828054611ddb90612b62565b90600052602060002090601f016020900481019282611dfd5760008555611e4b565b82601f10611e0e5780548555611e4b565b82800160010185558215611e4b57600052602060002091601f016020900482015b82811115611e4a578254825591600101919060010190611e2f565b5b509050611e589190611e9c565b5090565b508054611e6890612b62565b6000825580601f10611e7a5750611e99565b601f016020900490600052602060002090810190611e989190611e9c565b5b50565b5b80821115611eb5576000816000905550600101611e9d565b5090565b6000611ecc611ec784612a0e565b6129dd565b905082815260208101848484011115611ee457600080fd5b611eef848285612b20565b509392505050565b600081359050611f0681612c7b565b92915050565b600082601f830112611f1d57600080fd5b8135611f2d848260208601611eb9565b91505092915050565b600081359050611f4581612c92565b92915050565b60008060008060808587031215611f6157600080fd5b600085013567ffffffffffffffff811115611f7b57600080fd5b611f8787828801611f0c565b945050602085013567ffffffffffffffff811115611fa457600080fd5b611fb087828801611f0c565b9350506040611fc187828801611f36565b9250506060611fd287828801611f36565b91505092959194509250565b600060208284031215611ff057600080fd5b6000611ffe84828501611f36565b91505092915050565b6000806040838503121561201a57600080fd5b600061202885828601611f36565b925050602061203985828601611ef7565b9150509250929050565b6000806040838503121561205657600080fd5b600061206485828601611f36565b925050602083013567ffffffffffffffff81111561208157600080fd5b61208d85828601611f0c565b9150509250929050565b600080600080600060a086880312156120af57600080fd5b60006120bd88828901611f36565b955050602086013567ffffffffffffffff8111156120da57600080fd5b6120e688828901611f0c565b945050604086013567ffffffffffffffff81111561210357600080fd5b61210f88828901611f0c565b935050606061212088828901611f36565b925050608061213188828901611f36565b9150509295509295909350565b6000806040838503121561215157600080fd5b600061215f85828601611f36565b925050602061217085828601611f36565b9150509250929050565b60008060006060848603121561218f57600080fd5b600061219d86828701611f36565b93505060206121ae86828701611f36565b925050604084013567ffffffffffffffff8111156121cb57600080fd5b6121d786828701611f0c565b9150509250925092565b60006121ed8383612606565b905092915050565b600061220082612a4e565b61220a8185612a71565b93508360208202850161221c85612a3e565b8060005b85811015612258578484038952815161223985826121e1565b945061224483612a64565b925060208a01995050600181019050612220565b50829750879550505050505092915050565b61227381612aea565b82525050565b61228281612aea565b82525050565b600061229382612a59565b61229d8185612a82565b93506122ad818560208601612b2f565b6122b681612c6a565b840191505092915050565b60006122cc82612a59565b6122d68185612a93565b93506122e6818560208601612b2f565b6122ef81612c6a565b840191505092915050565b6000612307602e83612a93565b91507f566f74696e67206973207374696c6c206f6e676f696e6720616e6420656c656360008301527f74696f6e206973206163746976650000000000000000000000000000000000006020830152604082019050919050565b600061236d601883612a93565b91507f456c656374696f6e206973207374696c6c2061637469766500000000000000006000830152602082019050919050565b60006123ad601683612a93565b91507f566f74696e6720686173206e6f742073746172746564000000000000000000006000830152602082019050919050565b60006123ed601a83612a93565b91507f43616e646964617465206e616d652069732072657175697265640000000000006000830152602082019050919050565b600061242d601783612a93565b91507f456c656374696f6e20646f6573206e6f742065786973740000000000000000006000830152602082019050919050565b600061246d602183612a93565b91507f456e642064617465206d7573742062652061667465722073746172742064617460008301527f65000000000000000000000000000000000000000000000000000000000000006020830152604082019050919050565b60006124d3601083612a93565b91507f566f74696e672068617320656e646564000000000000000000000000000000006000830152602082019050919050565b6000612513601883612a93565b91507f43616e64696461746520646f6573206e6f7420657869737400000000000000006000830152602082019050919050565b6000612553601483612a93565b91507f566f74696e6720686173206e6f7420656e6465640000000000000000000000006000830152602082019050919050565b6000612593601683612a93565b91507f456c656374696f6e206973206e6f7420616374697665000000000000000000006000830152602082019050919050565b60006125d3601683612a93565b91507f596f75206861766520616c726561647920766f746564000000000000000000006000830152602082019050919050565b600060608301600083015161261e60008601826126e6565b50602083015184820360208601526126368282612288565b915050604083015161264b60408601826126e6565b508091505092915050565b600060c08301600083015161266e60008601826126e6565b50602083015184820360208601526126868282612288565b915050604083015184820360408601526126a08282612288565b91505060608301516126b560608601826126e6565b5060808301516126c860808601826126e6565b5060a08301516126db60a086018261226a565b508091505092915050565b6126ef81612b16565b82525050565b6126fe81612b16565b82525050565b6000602082019050818103600083015261271e81846121f5565b905092915050565b600060208201905061273b6000830184612279565b92915050565b6000602082019050818103600083015261275b81846122c1565b905092915050565b6000602082019050818103600083015261277c816122fa565b9050919050565b6000602082019050818103600083015261279c81612360565b9050919050565b600060208201905081810360008301526127bc816123a0565b9050919050565b600060208201905081810360008301526127dc816123e0565b9050919050565b600060208201905081810360008301526127fc81612420565b9050919050565b6000602082019050818103600083015261281c81612460565b9050919050565b6000602082019050818103600083015261283c816124c6565b9050919050565b6000602082019050818103600083015261285c81612506565b9050919050565b6000602082019050818103600083015261287c81612546565b9050919050565b6000602082019050818103600083015261289c81612586565b9050919050565b600060208201905081810360008301526128bc816125c6565b9050919050565b600060208201905081810360008301526128dd8184612656565b905092915050565b60006020820190506128fa60008301846126f5565b92915050565b600060408201905061291560008301856126f5565b818103602083015261292781846122c1565b90509392505050565b600060c08201905061294560008301896126f5565b818103602083015261295781886122c1565b9050818103604083015261296b81876122c1565b905061297a60608301866126f5565b61298760808301856126f5565b61299460a0830184612279565b979650505050505050565b60006060820190506129b460008301866126f5565b81810360208301526129c681856122c1565b90506129d560408301846126f5565b949350505050565b6000604051905081810181811067ffffffffffffffff82111715612a0457612a03612c3b565b5b8060405250919050565b600067ffffffffffffffff821115612a2957612a28612c3b565b5b601f19601f8301169050602081019050919050565b6000819050602082019050919050565b600081519050919050565b600081519050919050565b6000602082019050919050565b600082825260208201905092915050565b600082825260208201905092915050565b600082825260208201905092915050565b6000612aaf82612b16565b9150612aba83612b16565b925082821015612acd57612acc612bdd565b5b828203905092915050565b6000612ae382612af6565b9050919050565b60008115159050919050565b600073ffffffffffffffffffffffffffffffffffffffff82169050919050565b6000819050919050565b82818337600083830152505050565b60005b83811015612b4d578082015181840152602081019050612b32565b83811115612b5c576000848401525b50505050565b60006002820490506001821680612b7a57607f821691505b60208210811415612b8e57612b8d612c0c565b5b50919050565b6000612b9f82612b16565b91507fffffffffffffffffffffffffffffffffffffffffffffffffffffffffffffffff821415612bd257612bd1612bdd565b5b600182019050919050565b7f4e487b7100000000000000000000000000000000000000000000000000000000600052601160045260246000fd5b7f4e487b7100000000000000000000000000000000000000000000000000000000600052602260045260246000fd5b7f4e487b7100000000000000000000000000000000000000000000000000000000600052604160045260246000fd5b6000601f19601f8301169050919050565b612c8481612ad8565b8114612c8f57600080fd5b50565b612c9b81612b16565b8114612ca657600080fd5b5056fea2646970667358221220054403d5a50a33a44d76db04ae39ed90335e25fd6a6fb94dde14c6b1951cb26464736f6c63430008000033",
  "immutableReferences": {},
  "source": "// SPDX-License-Identifier: MIT\npragma solidity ^0.8.0;\n\ncontract Voting {\n    // Structures\n    struct Candidate {\n        uint id;\n        string name;\n        uint voteCount;\n    }\n\n    struct Election {\n        uint id;\n        string title;\n        string description;\n        uint startDate;\n        uint endDate;\n        bool isActive;\n    }\n\n    // State Variables\n    mapping(uint => Candidate[]) public candidatesByElection; // Election ID to candidates array\n    mapping(uint => Election) public elections; // Election ID to Election\n    mapping(uint => mapping(address => bool)) public votes; // Election ID to voter to boolean\n    mapping(uint => uint) public nextCandidateIdByElection; // Election ID to next Candidate ID\n    uint public nextElectionId;\n\n    // Events\n    event ElectionCreated(uint indexed electionId, string title);\n    event CandidateAdded(uint indexed electionId, uint candidateId, string name);\n    event CandidateUpdated(uint indexed electionId, uint candidateId, string name);\n    event CandidateDeleted(uint indexed electionId, uint candidateId);\n    event VoteCasted(uint indexed electionId, uint indexed candidateId, address indexed voter);\n    event ElectionUpdated(uint indexed electionId, string title);\n    event ElectionClosed(uint indexed electionId);\n\n    // Constructor\n    constructor() {\n        // Optionally initialize some state variables here\n        // For example: nextElectionId = 1;\n    }\n\n    // Create a new election\n    function createElection(\n        string memory _title,\n        string memory _description,\n        uint256 _startDate,\n        uint256 _endDate\n    ) public {\n        require(_endDate > _startDate, \"End date must be after start date\");\n\n        elections[nextElectionId] = Election({\n            id: nextElectionId,\n            title: _title,\n            description: _description,\n            startDate: _startDate,\n            endDate: _endDate,\n            isActive: true\n        });\n\n        emit ElectionCreated(nextElectionId, _title);\n        nextElectionId++;\n    }\n\n    // Update an election's details\n    function updateElection(\n        uint _electionId,\n        string memory _title,\n        string memory _description,\n        uint _startDate,\n        uint _endDate\n    ) public {\n        require(elections[_electionId].isActive, \"Election is not active\");\n        require(_endDate > _startDate, \"End date must be after start date\");\n\n        Election storage election = elections[_electionId];\n        election.title = _title;\n        election.description = _description;\n        election.startDate = _startDate;\n        election.endDate = _endDate;\n\n        emit ElectionUpdated(_electionId, _title);\n    }\n\n    // Add a candidate to an election\n    function addCandidate(uint _electionId, string memory _name) public {\n        Election storage election = elections[_electionId];\n        \n        require(election.isActive, \"Election is not active\");\n        require(bytes(_name).length > 0, \"Candidate name is required\");\n\n        uint candidateId = nextCandidateIdByElection[_electionId];\n        candidatesByElection[_electionId].push(Candidate({\n            id: candidateId,\n            name: _name,\n            voteCount: 0\n        }));\n\n        emit CandidateAdded(_electionId, candidateId, _name);\n        nextCandidateIdByElection[_electionId]++;\n    }\n\n    // Update a candidate's details\n    function updateCandidate(uint _electionId, uint _candidateId, string memory _name) public {\n        require(elections[_electionId].isActive, \"Election is not active\");\n        require(bytes(_name).length > 0, \"Candidate name is required\");\n\n        Candidate[] storage electionCandidates = candidatesByElection[_electionId];\n        bool candidateExists = false;\n\n        for (uint i = 0; i < electionCandidates.length; i++) {\n            if (electionCandidates[i].id == _candidateId) {\n                electionCandidates[i].name = _name;\n                candidateExists = true;\n                emit CandidateUpdated(_electionId, _candidateId, _name);\n                break;\n            }\n        }\n\n        require(candidateExists, \"Candidate does not exist\");\n    }\n\n    // Delete a candidate from an election\n    function deleteCandidate(uint _electionId, uint _candidateId) public {\n        require(elections[_electionId].isActive, \"Election is not active\");\n\n        Candidate[] storage electionCandidates = candidatesByElection[_electionId];\n        uint indexToDelete = type(uint).max;\n        bool candidateExists = false;\n\n        for (uint i = 0; i < electionCandidates.length; i++) {\n            if (electionCandidates[i].id == _candidateId) {\n                indexToDelete = i;\n                candidateExists = true;\n                emit CandidateDeleted(_electionId, _candidateId);\n                break;\n            }\n        }\n\n        require(candidateExists, \"Candidate does not exist\");\n\n        // Swap with the last candidate and remove\n        if (indexToDelete < electionCandidates.length - 1) {\n            electionCandidates[indexToDelete] = electionCandidates[electionCandidates.length - 1];\n        }\n        electionCandidates.pop();\n    }\n\n    // Cast a vote\n    function castVote(uint _electionId, uint _candidateId) public {\n        Election storage election = elections[_electionId];\n        Candidate[] storage electionCandidates = candidatesByElection[_electionId];\n\n        require(election.isActive, \"Election is not active\");\n        require(block.timestamp >= election.startDate, \"Voting has not started\");\n        require(block.timestamp <= election.endDate, \"Voting has ended\");\n        require(!votes[_electionId][msg.sender], \"You have already voted\");\n\n        uint candidateIndex = findCandidateIndex(_electionId, _candidateId);\n        require(candidateIndex != type(uint).max, \"Candidate does not exist\");\n\n        electionCandidates[candidateIndex].voteCount++;\n        votes[_electionId][msg.sender] = true;\n\n        emit VoteCasted(_electionId, _candidateId, msg.sender);\n    }\n\n    // Internal function to find candidate index\n    function findCandidateIndex(uint _electionId, uint _candidateId) internal view returns (uint) {\n        Candidate[] storage electionCandidates = candidatesByElection[_electionId];\n        for (uint i = 0; i < electionCandidates.length; i++) {\n            if (electionCandidates[i].id == _candidateId) {\n                return i;\n            }\n        }\n        return type(uint).max; // Return a value indicating the candidate was not found\n    }\n\n    // Tally votes\n    function tallyVotes(uint _electionId) public view returns (Candidate[] memory) {\n    // Fetch election details\n    Election memory election = elections[_electionId];\n\n    // Check if either condition is met\n    bool votingEnded = block.timestamp > election.endDate;\n    bool electionNotActive = !election.isActive;\n\n    require(votingEnded || electionNotActive, \"Voting is still ongoing and election is active\");\n\n    // Return the list of candidates\n    return candidatesByElection[_electionId];\n    }\n\n\n    // Get candidates for an election\n    function getCandidates(uint _electionId) public view returns (Candidate[] memory) {\n        return candidatesByElection[_electionId];\n    }\n\n    // Get election details\n    function getElection(uint _electionId) public view returns (Election memory) {\n        return elections[_electionId];\n    }\n\n    // Close an election\n    function closeElection(uint256 _electionId) public {\n    // Ensure the election exists\n    require(elections[_electionId].endDate != 0, \"Election does not exist\");\n\n    // Set the election as inactive\n    elections[_electionId].isActive = false;\n    \n    // Emit an event to signal that the election has been closed\n    emit ElectionClosed(_electionId);\n   }\n\n\n    // Get election results\n    function getElectionResults(uint _electionId) public view returns (Candidate[] memory) {\n        require(block.timestamp > elections[_electionId].endDate, \"Voting has not ended\");\n        require(!elections[_electionId].isActive, \"Election is still active\");\n\n        return candidatesByElection[_electionId];\n    }\n\n    // Check election status\n    function checkElectionStatus(uint _electionId) public view returns (string memory) {\n        Election storage election = elections[_electionId];\n        \n        if (!election.isActive) {\n            return \"Election is closed\";\n        }\n        \n        if (block.timestamp < election.startDate) {\n            return \"Election has not started yet\";\n        }\n        \n        if (block.timestamp > election.endDate) {\n            return \"Election has ended\";\n        }\n        \n        return \"Election is ongoing\";\n    }\n\n    // Get the total number of elections\n    function getElectionCount() public view returns (uint) {\n        return nextElectionId;\n    }\n}\n",
  "sourcePath": "/home/ndipelvis/Desktop/Blockchain App/Backend/src/contracts/contracts/ElectionVote.sol",
  "compiler": {
    "name": "solc",
    "version": "0.8.0+commit.c7dfd78e.Emscripten.clang"
  },
  "schemaVersion": "3.4.16",
  "updatedAt": "2024-08-31T15:32:56.176Z",
  "networkType": "ethereum",
  "devdoc": {
    "kind": "dev",
    "methods": {},
    "version": 1
  },
  "userdoc": {
    "kind": "user",
    "methods": {},
    "version": 1
  }
}