{
  "contractName": "Voting",
  "abi": [
    {
      "inputs": [],
      "stateMutability": "nonpayable",
      "type": "constructor"
    },
    {
      "anonymous": false,
      "inputs": [
        {
          "indexed": false,
          "internalType": "uint256",
          "name": "electionId",
          "type": "uint256"
        },
        {
          "indexed": false,
          "internalType": "address",
          "name": "voter",
          "type": "address"
        }
      ],
      "name": "AlreadyVoted",
      "type": "event"
    },
    {
      "anonymous": false,
      "inputs": [
        {
          "indexed": true,
          "internalType": "uint256",
          "name": "electionId",
          "type": "uint256"
        },
        {
          "indexed": false,
          "internalType": "uint256",
          "name": "candidateId",
          "type": "uint256"
        },
        {
          "indexed": false,
          "internalType": "string",
          "name": "name",
          "type": "string"
        }
      ],
      "name": "CandidateAdded",
      "type": "event"
    },
    {
      "anonymous": false,
      "inputs": [
        {
          "indexed": true,
          "internalType": "uint256",
          "name": "electionId",
          "type": "uint256"
        },
        {
          "indexed": false,
          "internalType": "uint256",
          "name": "candidateId",
          "type": "uint256"
        }
      ],
      "name": "CandidateDeleted",
      "type": "event"
    },
    {
      "anonymous": false,
      "inputs": [
        {
          "indexed": false,
          "internalType": "uint256",
          "name": "electionId",
          "type": "uint256"
        },
        {
          "indexed": false,
          "internalType": "uint256",
          "name": "candidateId",
          "type": "uint256"
        }
      ],
      "name": "CandidateDoesNotExist",
      "type": "event"
    },
    {
      "anonymous": false,
      "inputs": [
        {
          "indexed": true,
          "internalType": "uint256",
          "name": "electionId",
          "type": "uint256"
        },
        {
          "indexed": false,
          "internalType": "uint256",
          "name": "candidateId",
          "type": "uint256"
        },
        {
          "indexed": false,
          "internalType": "uint256",
          "name": "candidateIndex",
          "type": "uint256"
        }
      ],
      "name": "CandidateIndexFound",
      "type": "event"
    },
    {
      "anonymous": false,
      "inputs": [
        {
          "indexed": true,
          "internalType": "uint256",
          "name": "electionId",
          "type": "uint256"
        },
        {
          "indexed": false,
          "internalType": "uint256",
          "name": "candidateId",
          "type": "uint256"
        },
        {
          "indexed": false,
          "internalType": "string",
          "name": "name",
          "type": "string"
        }
      ],
      "name": "CandidateUpdated",
      "type": "event"
    },
    {
      "anonymous": false,
      "inputs": [
        {
          "indexed": true,
          "internalType": "uint256",
          "name": "electionId",
          "type": "uint256"
        },
        {
          "indexed": false,
          "internalType": "uint256",
          "name": "numberOfCandidates",
          "type": "uint256"
        }
      ],
      "name": "CandidatesRetrieved",
      "type": "event"
    },
    {
      "anonymous": false,
      "inputs": [
        {
          "indexed": true,
          "internalType": "uint256",
          "name": "electionId",
          "type": "uint256"
        }
      ],
      "name": "ElectionClosed",
      "type": "event"
    },
    {
      "anonymous": false,
      "inputs": [
        {
          "indexed": true,
          "internalType": "uint256",
          "name": "electionId",
          "type": "uint256"
        },
        {
          "indexed": false,
          "internalType": "string",
          "name": "title",
          "type": "string"
        }
      ],
      "name": "ElectionCreated",
      "type": "event"
    },
    {
      "anonymous": false,
      "inputs": [
        {
          "indexed": false,
          "internalType": "uint256",
          "name": "electionId",
          "type": "uint256"
        },
        {
          "indexed": false,
          "internalType": "string",
          "name": "message",
          "type": "string"
        }
      ],
      "name": "ElectionNotActive",
      "type": "event"
    },
    {
      "anonymous": false,
      "inputs": [
        {
          "indexed": false,
          "internalType": "uint256",
          "name": "electionId",
          "type": "uint256"
        },
        {
          "indexed": false,
          "internalType": "string",
          "name": "message",
          "type": "string"
        }
      ],
      "name": "ElectionNotStarted",
      "type": "event"
    },
    {
      "anonymous": false,
      "inputs": [
        {
          "indexed": true,
          "internalType": "uint256",
          "name": "electionId",
          "type": "uint256"
        },
        {
          "indexed": false,
          "internalType": "bool",
          "name": "isActive",
          "type": "bool"
        },
        {
          "indexed": false,
          "internalType": "uint256",
          "name": "startDate",
          "type": "uint256"
        },
        {
          "indexed": false,
          "internalType": "uint256",
          "name": "endDate",
          "type": "uint256"
        }
      ],
      "name": "ElectionRetrieved",
      "type": "event"
    },
    {
      "anonymous": false,
      "inputs": [
        {
          "indexed": true,
          "internalType": "uint256",
          "name": "electionId",
          "type": "uint256"
        },
        {
          "indexed": false,
          "internalType": "bool",
          "name": "isActive",
          "type": "bool"
        }
      ],
      "name": "ElectionStatusChecked",
      "type": "event"
    },
    {
      "anonymous": false,
      "inputs": [
        {
          "indexed": true,
          "internalType": "uint256",
          "name": "electionId",
          "type": "uint256"
        },
        {
          "indexed": false,
          "internalType": "string",
          "name": "title",
          "type": "string"
        }
      ],
      "name": "ElectionUpdated",
      "type": "event"
    },
    {
      "anonymous": false,
      "inputs": [
        {
          "indexed": true,
          "internalType": "uint256",
          "name": "electionId",
          "type": "uint256"
        },
        {
          "indexed": true,
          "internalType": "uint256",
          "name": "candidateId",
          "type": "uint256"
        },
        {
          "indexed": true,
          "internalType": "address",
          "name": "voter",
          "type": "address"
        }
      ],
      "name": "VoteCasted",
      "type": "event"
    },
    {
      "anonymous": false,
      "inputs": [
        {
          "indexed": true,
          "internalType": "uint256",
          "name": "electionId",
          "type": "uint256"
        },
        {
          "indexed": true,
          "internalType": "uint256",
          "name": "candidateId",
          "type": "uint256"
        },
        {
          "indexed": true,
          "internalType": "address",
          "name": "voter",
          "type": "address"
        }
      ],
      "name": "VoteCastedEvent",
      "type": "event"
    },
    {
      "anonymous": false,
      "inputs": [
        {
          "indexed": true,
          "internalType": "uint256",
          "name": "electionId",
          "type": "uint256"
        },
        {
          "indexed": true,
          "internalType": "uint256",
          "name": "candidateId",
          "type": "uint256"
        },
        {
          "indexed": true,
          "internalType": "address",
          "name": "voter",
          "type": "address"
        },
        {
          "indexed": false,
          "internalType": "bool",
          "name": "success",
          "type": "bool"
        },
        {
          "indexed": false,
          "internalType": "string",
          "name": "message",
          "type": "string"
        }
      ],
      "name": "VoteCastingCompleted",
      "type": "event"
    },
    {
      "anonymous": false,
      "inputs": [
        {
          "indexed": true,
          "internalType": "uint256",
          "name": "electionId",
          "type": "uint256"
        },
        {
          "indexed": true,
          "internalType": "uint256",
          "name": "candidateId",
          "type": "uint256"
        },
        {
          "indexed": true,
          "internalType": "address",
          "name": "voter",
          "type": "address"
        }
      ],
      "name": "VoteCastingInitiated",
      "type": "event"
    },
    {
      "anonymous": false,
      "inputs": [
        {
          "indexed": true,
          "internalType": "uint256",
          "name": "electionId",
          "type": "uint256"
        },
        {
          "indexed": false,
          "internalType": "uint256",
          "name": "candidateId",
          "type": "uint256"
        },
        {
          "indexed": false,
          "internalType": "uint256",
          "name": "newVoteCount",
          "type": "uint256"
        }
      ],
      "name": "VoteCountIncremented",
      "type": "event"
    },
    {
      "anonymous": false,
      "inputs": [
        {
          "indexed": true,
          "internalType": "uint256",
          "name": "electionId",
          "type": "uint256"
        },
        {
          "indexed": true,
          "internalType": "address",
          "name": "voter",
          "type": "address"
        },
        {
          "indexed": false,
          "internalType": "bool",
          "name": "hasVoted",
          "type": "bool"
        }
      ],
      "name": "VoterEligibilityChecked",
      "type": "event"
    },
    {
      "anonymous": false,
      "inputs": [
        {
          "indexed": true,
          "internalType": "uint256",
          "name": "electionId",
          "type": "uint256"
        },
        {
          "indexed": true,
          "internalType": "address",
          "name": "voter",
          "type": "address"
        }
      ],
      "name": "VoterMarked",
      "type": "event"
    },
    {
      "anonymous": false,
      "inputs": [
        {
          "indexed": false,
          "internalType": "uint256",
          "name": "electionId",
          "type": "uint256"
        },
        {
          "indexed": false,
          "internalType": "string",
          "name": "message",
          "type": "string"
        }
      ],
      "name": "VotingEnded",
      "type": "event"
    },
    {
      "anonymous": false,
      "inputs": [
        {
          "indexed": true,
          "internalType": "uint256",
          "name": "electionId",
          "type": "uint256"
        },
        {
          "indexed": false,
          "internalType": "uint256",
          "name": "currentTimestamp",
          "type": "uint256"
        },
        {
          "indexed": false,
          "internalType": "uint256",
          "name": "startDate",
          "type": "uint256"
        },
        {
          "indexed": false,
          "internalType": "uint256",
          "name": "endDate",
          "type": "uint256"
        }
      ],
      "name": "VotingPeriodChecked",
      "type": "event"
    },
    {
      "inputs": [
        {
          "internalType": "uint256",
          "name": "",
          "type": "uint256"
        },
        {
          "internalType": "uint256",
          "name": "",
          "type": "uint256"
        }
      ],
      "name": "candidatesByElection",
      "outputs": [
        {
          "internalType": "uint256",
          "name": "id",
          "type": "uint256"
        },
        {
          "internalType": "string",
          "name": "name",
          "type": "string"
        },
        {
          "internalType": "uint256",
          "name": "voteCount",
          "type": "uint256"
        }
      ],
      "stateMutability": "view",
      "type": "function",
      "constant": true
    },
    {
      "inputs": [
        {
          "internalType": "uint256",
          "name": "",
          "type": "uint256"
        }
      ],
      "name": "elections",
      "outputs": [
        {
          "internalType": "uint256",
          "name": "id",
          "type": "uint256"
        },
        {
          "internalType": "string",
          "name": "title",
          "type": "string"
        },
        {
          "internalType": "string",
          "name": "description",
          "type": "string"
        },
        {
          "internalType": "uint256",
          "name": "startDate",
          "type": "uint256"
        },
        {
          "internalType": "uint256",
          "name": "endDate",
          "type": "uint256"
        },
        {
          "internalType": "bool",
          "name": "isActive",
          "type": "bool"
        }
      ],
      "stateMutability": "view",
      "type": "function",
      "constant": true
    },
    {
      "inputs": [
        {
          "internalType": "uint256",
          "name": "",
          "type": "uint256"
        }
      ],
      "name": "nextCandidateIdByElection",
      "outputs": [
        {
          "internalType": "uint256",
          "name": "",
          "type": "uint256"
        }
      ],
      "stateMutability": "view",
      "type": "function",
      "constant": true
    },
    {
      "inputs": [],
      "name": "nextElectionId",
      "outputs": [
        {
          "internalType": "uint256",
          "name": "",
          "type": "uint256"
        }
      ],
      "stateMutability": "view",
      "type": "function",
      "constant": true
    },
    {
      "inputs": [
        {
          "internalType": "uint256",
          "name": "",
          "type": "uint256"
        },
        {
          "internalType": "address",
          "name": "",
          "type": "address"
        }
      ],
      "name": "votes",
      "outputs": [
        {
          "internalType": "bool",
          "name": "",
          "type": "bool"
        }
      ],
      "stateMutability": "view",
      "type": "function",
      "constant": true
    },
    {
      "inputs": [
        {
          "internalType": "string",
          "name": "_title",
          "type": "string"
        },
        {
          "internalType": "string",
          "name": "_description",
          "type": "string"
        },
        {
          "internalType": "uint256",
          "name": "_startDate",
          "type": "uint256"
        },
        {
          "internalType": "uint256",
          "name": "_endDate",
          "type": "uint256"
        }
      ],
      "name": "createElection",
      "outputs": [],
      "stateMutability": "nonpayable",
      "type": "function"
    },
    {
      "inputs": [
        {
          "internalType": "uint256",
          "name": "_electionId",
          "type": "uint256"
        },
        {
          "internalType": "string",
          "name": "_title",
          "type": "string"
        },
        {
          "internalType": "string",
          "name": "_description",
          "type": "string"
        },
        {
          "internalType": "uint256",
          "name": "_startDate",
          "type": "uint256"
        },
        {
          "internalType": "uint256",
          "name": "_endDate",
          "type": "uint256"
        }
      ],
      "name": "updateElection",
      "outputs": [],
      "stateMutability": "nonpayable",
      "type": "function"
    },
    {
      "inputs": [
        {
          "internalType": "uint256",
          "name": "_electionId",
          "type": "uint256"
        }
      ],
      "name": "closeElection",
      "outputs": [],
      "stateMutability": "nonpayable",
      "type": "function"
    },
    {
      "inputs": [
        {
          "internalType": "uint256",
          "name": "_electionId",
          "type": "uint256"
        }
      ],
      "name": "checkElectionStatus",
      "outputs": [
        {
          "internalType": "string",
          "name": "",
          "type": "string"
        }
      ],
      "stateMutability": "nonpayable",
      "type": "function"
    },
    {
      "inputs": [],
      "name": "getElectionCount",
      "outputs": [
        {
          "internalType": "uint256",
          "name": "",
          "type": "uint256"
        }
      ],
      "stateMutability": "view",
      "type": "function",
      "constant": true
    },
    {
      "inputs": [
        {
          "internalType": "uint256",
          "name": "_electionId",
          "type": "uint256"
        },
        {
          "internalType": "string",
          "name": "_name",
          "type": "string"
        }
      ],
      "name": "addCandidate",
      "outputs": [],
      "stateMutability": "nonpayable",
      "type": "function"
    },
    {
      "inputs": [
        {
          "internalType": "uint256",
          "name": "_electionId",
          "type": "uint256"
        },
        {
          "internalType": "uint256",
          "name": "_candidateId",
          "type": "uint256"
        },
        {
          "internalType": "string",
          "name": "_name",
          "type": "string"
        }
      ],
      "name": "updateCandidate",
      "outputs": [],
      "stateMutability": "nonpayable",
      "type": "function"
    },
    {
      "inputs": [
        {
          "internalType": "uint256",
          "name": "_electionId",
          "type": "uint256"
        },
        {
          "internalType": "uint256",
          "name": "_candidateId",
          "type": "uint256"
        }
      ],
      "name": "deleteCandidate",
      "outputs": [],
      "stateMutability": "nonpayable",
      "type": "function"
    },
    {
      "inputs": [
        {
          "internalType": "uint256",
          "name": "_electionId",
          "type": "uint256"
        },
        {
          "internalType": "uint256",
          "name": "_candidateId",
          "type": "uint256"
        }
      ],
      "name": "castVote",
      "outputs": [],
      "stateMutability": "nonpayable",
      "type": "function"
    },
    {
      "inputs": [
        {
          "internalType": "uint256",
          "name": "_electionId",
          "type": "uint256"
        }
      ],
      "name": "tallyVotes",
      "outputs": [
        {
          "components": [
            {
              "internalType": "uint256",
              "name": "id",
              "type": "uint256"
            },
            {
              "internalType": "string",
              "name": "name",
              "type": "string"
            },
            {
              "internalType": "uint256",
              "name": "voteCount",
              "type": "uint256"
            }
          ],
          "internalType": "struct Voting.Candidate[]",
          "name": "",
          "type": "tuple[]"
        }
      ],
      "stateMutability": "view",
      "type": "function",
      "constant": true
    },
    {
      "inputs": [
        {
          "internalType": "uint256",
          "name": "_electionId",
          "type": "uint256"
        }
      ],
      "name": "getCandidates",
      "outputs": [
        {
          "components": [
            {
              "internalType": "uint256",
              "name": "id",
              "type": "uint256"
            },
            {
              "internalType": "string",
              "name": "name",
              "type": "string"
            },
            {
              "internalType": "uint256",
              "name": "voteCount",
              "type": "uint256"
            }
          ],
          "internalType": "struct Voting.Candidate[]",
          "name": "",
          "type": "tuple[]"
        }
      ],
      "stateMutability": "view",
      "type": "function",
      "constant": true
    },
    {
      "inputs": [
        {
          "internalType": "uint256",
          "name": "_electionId",
          "type": "uint256"
        }
      ],
      "name": "getElection",
      "outputs": [
        {
          "components": [
            {
              "internalType": "uint256",
              "name": "id",
              "type": "uint256"
            },
            {
              "internalType": "string",
              "name": "title",
              "type": "string"
            },
            {
              "internalType": "string",
              "name": "description",
              "type": "string"
            },
            {
              "internalType": "uint256",
              "name": "startDate",
              "type": "uint256"
            },
            {
              "internalType": "uint256",
              "name": "endDate",
              "type": "uint256"
            },
            {
              "internalType": "bool",
              "name": "isActive",
              "type": "bool"
            }
          ],
          "internalType": "struct Voting.Election",
          "name": "",
          "type": "tuple"
        }
      ],
      "stateMutability": "view",
      "type": "function",
      "constant": true
    },
    {
      "inputs": [
        {
          "internalType": "uint256",
          "name": "_electionId",
          "type": "uint256"
        }
      ],
      "name": "getElectionResults",
      "outputs": [
        {
          "components": [
            {
              "internalType": "uint256",
              "name": "id",
              "type": "uint256"
            },
            {
              "internalType": "string",
              "name": "name",
              "type": "string"
            },
            {
              "internalType": "uint256",
              "name": "voteCount",
              "type": "uint256"
            }
          ],
          "internalType": "struct Voting.Candidate[]",
          "name": "",
          "type": "tuple[]"
        }
      ],
      "stateMutability": "view",
      "type": "function",
      "constant": true
    }
  ],
  "bytecode": "0x608060405234801561001057600080fd5b5061346d806100206000396000f3fe608060405234801561001057600080fd5b50600436106101165760003560e01c80635313837b116100a25780637ad36e84116100715780637ad36e841461030a5780639d71077714610326578063cf4a606014610356578063d23254b414610372578063e8ededa6146103a257610116565b80635313837b146102555780635c18d4a7146102735780635e6fef01146102a357806373963a9f146102d857610116565b80632c0a3f89116100e95780632c0a3f89146101a157806336af08a5146101bd5780633bb76ef6146101d95780633e39a7a5146101f55780634d318b0e1461022557610116565b806309e33d071461011b5780630b91b25a146101375780631750a3d014610167578063213785a014610183575b600080fd5b6101356004803603810190610130919061251d565b6103d2565b005b610151600480360381019061014c919061251d565b61048b565b60405161015e9190612de5565b60405180910390f35b610181600480360381019061017c9190612582565b61070e565b005b61018b61091a565b6040516101989190612f89565b60405180910390f35b6101bb60048036038101906101b6919061267d565b610924565b005b6101d760048036038101906101d291906125d6565b610ffb565b005b6101f360048036038101906101ee91906126b9565b61113b565b005b61020f600480360381019061020a919061251d565b611357565b60405161021c9190612d43565b60405180910390f35b61023f600480360381019061023a919061251d565b61146e565b60405161024c9190612d43565b60405180910390f35b61025d611764565b60405161026a9190612f89565b60405180910390f35b61028d6004803603810190610288919061251d565b61176a565b60405161029a9190612f89565b60405180910390f35b6102bd60048036038101906102b8919061251d565b611782565b6040516102cf96959493929190612fd4565b60405180910390f35b6102f260048036038101906102ed919061267d565b6118db565b60405161030193929190613043565b60405180910390f35b610324600480360381019061031f919061248a565b6119aa565b005b610340600480360381019061033b919061251d565b611b06565b60405161034d9190612f67565b60405180910390f35b610370600480360381019061036b919061267d565b611c90565b005b61038c60048036038101906103879190612546565b611f8d565b6040516103999190612d65565b60405180910390f35b6103bc60048036038101906103b7919061251d565b611fbc565b6040516103c99190612d43565b60405180910390f35b60006001600083815260200190815260200160002060040154141561042c576040517f08c379a000000000000000000000000000000000000000000000000000000000815260040161042390612e87565b60405180910390fd5b60006001600083815260200190815260200160002060050160006101000a81548160ff021916908315150217905550807f393c4b8e62f1195313cf17dcf00793c668ddfc35881cd8015559c074f6d61e8360405160405180910390a250565b60606000600160008481526020019081526020016000209050827fdea44d67a46194a3aaabab19395620458bd58c28717bf536e61631d3cf9f23ef8260050160009054906101000a900460ff16836003015484600401546040516104f193929190612dae565b60405180910390a28060050160009054906101000a900460ff16610584577f231b98956aea4f6f9734d60d13a3b4627ac58f60f24e60ed3d3c355c735467c88360405161053e91906130af565b60405180910390a16040518060400160405280601281526020017f456c656374696f6e20697320636c6f7365640000000000000000000000000000815250915050610709565b8060030154421015610605577f2d10d978f5144035751ac474902abf00052f8026dbfaf68a7a5b606ae557cc31836040516105bf91906130dd565b60405180910390a16040518060400160405280601c81526020017f456c656374696f6e20686173206e6f7420737461727465642079657400000000815250915050610709565b8060040154421115610686577fa3227ce2555eb04e16ca713bb19edd3beed774c93bcdf4e971f7aa405c2ca253836040516106409190613081565b60405180910390a16040518060400160405280601281526020017f456c656374696f6e2068617320656e6465640000000000000000000000000000815250915050610709565b827f267b91f53e29e6a55e1ad2064a6991cecfb4cab08d75b090352cd00f650e65fb8260050160009054906101000a900460ff166040516106c79190612d65565b60405180910390a26040518060400160405280601381526020017f456c656374696f6e206973206f6e676f696e67000000000000000000000000008152509150505b919050565b6000600160008481526020019081526020016000209050827fdea44d67a46194a3aaabab19395620458bd58c28717bf536e61631d3cf9f23ef8260050160009054906101000a900460ff168360030154846004015460405161077293929190612dae565b60405180910390a28060050160009054906101000a900460ff166107cb576040517f08c379a00000000000000000000000000000000000000000000000000000000081526004016107c290612f47565b60405180910390fd5b600082511161080f576040517f08c379a000000000000000000000000000000000000000000000000000000000815260040161080690612e67565b60405180910390fd5b6000600360008581526020019081526020016000205490506000808581526020019081526020016000206040518060600160405280838152602001858152602001600081525090806001815401808255809150506001900390600052602060002090600302016000909190919091506000820151816000015560208201518160010190805190602001906108a4929190612250565b50604082015181600201555050837fed8911b3df733b7d5f75724158e54478ea12e30f49c9d31b5261879f5b76586f82856040516108e3929190612fa4565b60405180910390a260036000858152602001908152602001600020600081548092919061090f90613322565b919050555050505050565b6000600454905090565b3373ffffffffffffffffffffffffffffffffffffffff1681837f81e8a4a1b3d767d09c3a78722df4ad92b96240bbec327e49a5d65797e883f54660405160405180910390a46000600160008481526020019081526020016000209050827fdea44d67a46194a3aaabab19395620458bd58c28717bf536e61631d3cf9f23ef8260050160009054906101000a900460ff16836003015484600401546040516109cd93929190612dae565b60405180910390a260008060008581526020019081526020016000209050837f2973f0bd9d3de877446bb49e43f0f7f1f5c5bb7c8bcda49917cd989f3b9439978280549050604051610a1f9190612f89565b60405180910390a28160050160009054906101000a900460ff16610a78576040517f08c379a0000000000000000000000000000000000000000000000000000000008152600401610a6f90612f47565b60405180910390fd5b837f267b91f53e29e6a55e1ad2064a6991cecfb4cab08d75b090352cd00f650e65fb8360050160009054906101000a900460ff16604051610ab99190612d65565b60405180910390a26000429050847f08f9597abbc72466b896b5de2e99036c747c2838184bc394d2da4d44414914ee8285600301548660040154604051610b0293929190613134565b60405180910390a28260030154811015610b51576040517f08c379a0000000000000000000000000000000000000000000000000000000008152600401610b4890612e47565b60405180910390fd5b8260040154811115610b98576040517f08c379a0000000000000000000000000000000000000000000000000000000008152600401610b8f90612ec7565b60405180910390fd5b6002600086815260200190815260200160002060003373ffffffffffffffffffffffffffffffffffffffff1673ffffffffffffffffffffffffffffffffffffffff16815260200190815260200160002060009054906101000a900460ff1615610c86573373ffffffffffffffffffffffffffffffffffffffff16857f54f74ffcc98806ee8d65db01c3b2a0a65aefa16fc6a688ba5cc90cf42ad89b926001604051610c439190612d65565b60405180910390a36040517f08c379a0000000000000000000000000000000000000000000000000000000008152600401610c7d90612f07565b60405180910390fd5b3373ffffffffffffffffffffffffffffffffffffffff16857f54f74ffcc98806ee8d65db01c3b2a0a65aefa16fc6a688ba5cc90cf42ad89b926000604051610cce9190612d65565b60405180910390a36000610ce2868661218f565b9050857f73ef868bbfa62b86bf139e017cb76d9b79578bf53a601c3a5c1c4eebbfcb427d8683604051610d1692919061310b565b60405180910390a27fffffffffffffffffffffffffffffffffffffffffffffffffffffffffffffffff811415610d81576040517f08c379a0000000000000000000000000000000000000000000000000000000008152600401610d7890612ee7565b60405180910390fd5b828181548110610dba577f4e487b7100000000000000000000000000000000000000000000000000000000600052603260045260246000fd5b90600052602060002090600302016002016000815480929190610ddc90613322565b91905055506000838281548110610e1c577f4e487b7100000000000000000000000000000000000000000000000000000000600052603260045260246000fd5b9060005260206000209060030201600201549050867f87080f1144298d7149e90d2ce8171aca1d0eaf68d9cb43da96c6e87423c2254b8783604051610e6292919061310b565b60405180910390a260016002600089815260200190815260200160002060003373ffffffffffffffffffffffffffffffffffffffff1673ffffffffffffffffffffffffffffffffffffffff16815260200190815260200160002060006101000a81548160ff0219169083151502179055503373ffffffffffffffffffffffffffffffffffffffff16877f33da46b59def1f1db313dc6c93204c7abed292dde6b175ad5b247a0f0f2b21b860405160405180910390a33373ffffffffffffffffffffffffffffffffffffffff1686887ffe9b9fe32c3fe66775687ffbbb055de4489a6f99a6d31665430849156e8d743560405160405180910390a43373ffffffffffffffffffffffffffffffffffffffff1686887fa39bcc8624e721b606a6bc409ceedeeb48f990e6fb6638c74357ae2b20acd4c060405160405180910390a43373ffffffffffffffffffffffffffffffffffffffff1686887f2df2445ac478160f7dfb415e05bd50c27ae4ecd470b58cf3e6e23e09cc9ff7ed6001604051610fea9190612d80565b60405180910390a450505050505050565b6001600086815260200190815260200160002060050160009054906101000a900460ff1661105e576040517f08c379a000000000000000000000000000000000000000000000000000000000815260040161105590612f47565b60405180910390fd5b8181116110a0576040517f08c379a000000000000000000000000000000000000000000000000000000000815260040161109790612ea7565b60405180910390fd5b6000600160008781526020019081526020016000209050848160010190805190602001906110cf929190612250565b50838160020190805190602001906110e8929190612250565b50828160030181905550818160040181905550857fa2d9d8c5841973b54ed4f74f5af3f8562d96eabc010602dadae72988f119f0368660405161112b9190612de5565b60405180910390a2505050505050565b6001600084815260200190815260200160002060050160009054906101000a900460ff1661119e576040517f08c379a000000000000000000000000000000000000000000000000000000000815260040161119590612f47565b60405180910390fd5b60008151116111e2576040517f08c379a00000000000000000000000000000000000000000000000000000000081526004016111d990612e67565b60405180910390fd5b600080600085815260200190815260200160002090506000805b828054905081101561130f5784838281548110611242577f4e487b7100000000000000000000000000000000000000000000000000000000600052603260045260246000fd5b90600052602060002090600302016000015414156112fc5783838281548110611294577f4e487b7100000000000000000000000000000000000000000000000000000000600052603260045260246000fd5b906000526020600020906003020160010190805190602001906112b8929190612250565b5060019150857f86b718c08dcedbcb4daabb5f4d7a8e80b21c9a411f63c373d38a16a81873832686866040516112ef929190612fa4565b60405180910390a261130f565b808061130790613322565b9150506111fc565b5080611350576040517f08c379a000000000000000000000000000000000000000000000000000000000815260040161134790612ee7565b60405180910390fd5b5050505050565b6060600080838152602001908152602001600020805480602002602001604051908101604052809291908181526020016000905b828210156114635783829060005260206000209060030201604051806060016040529081600082015481526020016001820180546113c8906132f0565b80601f01602080910402602001604051908101604052809291908181526020018280546113f4906132f0565b80156114415780601f1061141657610100808354040283529160200191611441565b820191906000526020600020905b81548152906001019060200180831161142457829003601f168201915b505050505081526020016002820154815250508152602001906001019061138b565b505050509050919050565b60606000600160008481526020019081526020016000206040518060c0016040529081600082015481526020016001820180546114aa906132f0565b80601f01602080910402602001604051908101604052809291908181526020018280546114d6906132f0565b80156115235780601f106114f857610100808354040283529160200191611523565b820191906000526020600020905b81548152906001019060200180831161150657829003601f168201915b5050505050815260200160028201805461153c906132f0565b80601f0160208091040260200160405190810160405280929190818152602001828054611568906132f0565b80156115b55780601f1061158a576101008083540402835291602001916115b5565b820191906000526020600020905b81548152906001019060200180831161159857829003601f168201915b5050505050815260200160038201548152602001600482015481526020016005820160009054906101000a900460ff1615151515815250509050600081608001514211905060008260a00151159050818061160d5750805b61164c576040517f08c379a000000000000000000000000000000000000000000000000000000000815260040161164390612e07565b60405180910390fd5b600080868152602001908152602001600020805480602002602001604051908101604052809291908181526020016000905b828210156117565783829060005260206000209060030201604051806060016040529081600082015481526020016001820180546116bb906132f0565b80601f01602080910402602001604051908101604052809291908181526020018280546116e7906132f0565b80156117345780601f1061170957610100808354040283529160200191611734565b820191906000526020600020905b81548152906001019060200180831161171757829003601f168201915b505050505081526020016002820154815250508152602001906001019061167e565b505050509350505050919050565b60045481565b60036020528060005260406000206000915090505481565b60016020528060005260406000206000915090508060000154908060010180546117ab906132f0565b80601f01602080910402602001604051908101604052809291908181526020018280546117d7906132f0565b80156118245780601f106117f957610100808354040283529160200191611824565b820191906000526020600020905b81548152906001019060200180831161180757829003601f168201915b505050505090806002018054611839906132f0565b80601f0160208091040260200160405190810160405280929190818152602001828054611865906132f0565b80156118b25780601f10611887576101008083540402835291602001916118b2565b820191906000526020600020905b81548152906001019060200180831161189557829003601f168201915b5050505050908060030154908060040154908060050160009054906101000a900460ff16905086565b600060205281600052604060002081815481106118f757600080fd5b906000526020600020906003020160009150915050806000015490806001018054611921906132f0565b80601f016020809104026020016040519081016040528092919081815260200182805461194d906132f0565b801561199a5780601f1061196f5761010080835404028352916020019161199a565b820191906000526020600020905b81548152906001019060200180831161197d57829003601f168201915b5050505050908060020154905083565b8181116119ec576040517f08c379a00000000000000000000000000000000000000000000000000000000081526004016119e390612ea7565b60405180910390fd5b6040518060c00160405280600454815260200185815260200184815260200183815260200182815260200160011515815250600160006004548152602001908152602001600020600082015181600001556020820151816001019080519060200190611a59929190612250565b506040820151816002019080519060200190611a76929190612250565b50606082015181600301556080820151816004015560a08201518160050160006101000a81548160ff0219169083151502179055509050506004547f52be7c4e77b4de76b7607d621492061fe13b58597e72dfb5e51ab8f6187ed14185604051611ae09190612de5565b60405180910390a260046000815480929190611afb90613322565b919050555050505050565b611b0e6122d6565b600160008381526020019081526020016000206040518060c001604052908160008201548152602001600182018054611b46906132f0565b80601f0160208091040260200160405190810160405280929190818152602001828054611b72906132f0565b8015611bbf5780601f10611b9457610100808354040283529160200191611bbf565b820191906000526020600020905b815481529060010190602001808311611ba257829003601f168201915b50505050508152602001600282018054611bd8906132f0565b80601f0160208091040260200160405190810160405280929190818152602001828054611c04906132f0565b8015611c515780601f10611c2657610100808354040283529160200191611c51565b820191906000526020600020905b815481529060010190602001808311611c3457829003601f168201915b5050505050815260200160038201548152602001600482015481526020016005820160009054906101000a900460ff1615151515815250509050919050565b6001600083815260200190815260200160002060050160009054906101000a900460ff16611cf3576040517f08c379a0000000000000000000000000000000000000000000000000000000008152600401611cea90612f47565b60405180910390fd5b6000806000848152602001908152602001600020905060007fffffffffffffffffffffffffffffffffffffffffffffffffffffffffffffffff90506000805b8380549050811015611de75784848281548110611d78577f4e487b7100000000000000000000000000000000000000000000000000000000600052603260045260246000fd5b9060005260206000209060030201600001541415611dd45780925060019150857f48bf3ef4944e20b74a7ae7804d664a8e9ba28141c5fc26163c87f7fbc9e90e2f86604051611dc79190612f89565b60405180910390a2611de7565b8080611ddf90613322565b915050611d32565b5080611e28576040517f08c379a0000000000000000000000000000000000000000000000000000000008152600401611e1f90612ee7565b60405180910390fd5b60018380549050611e399190613232565b821015611f16578260018480549050611e529190613232565b81548110611e89577f4e487b7100000000000000000000000000000000000000000000000000000000600052603260045260246000fd5b9060005260206000209060030201838381548110611ed0577f4e487b7100000000000000000000000000000000000000000000000000000000600052603260045260246000fd5b9060005260206000209060030201600082015481600001556001820181600101908054611efc906132f0565b611f0792919061230e565b50600282015481600201559050505b82805480611f4d577f4e487b7100000000000000000000000000000000000000000000000000000000600052603160045260246000fd5b6001900381819060005260206000209060030201600080820160009055600182016000611f7a919061239b565b6002820160009055505090555050505050565b60026020528160005260406000206020528060005260406000206000915091509054906101000a900460ff1681565b606060016000838152602001908152602001600020600401544211612016576040517f08c379a000000000000000000000000000000000000000000000000000000000815260040161200d90612f27565b60405180910390fd5b6001600083815260200190815260200160002060050160009054906101000a900460ff161561207a576040517f08c379a000000000000000000000000000000000000000000000000000000000815260040161207190612e27565b60405180910390fd5b600080838152602001908152602001600020805480602002602001604051908101604052809291908181526020016000905b828210156121845783829060005260206000209060030201604051806060016040529081600082015481526020016001820180546120e9906132f0565b80601f0160208091040260200160405190810160405280929190818152602001828054612115906132f0565b80156121625780601f1061213757610100808354040283529160200191612162565b820191906000526020600020905b81548152906001019060200180831161214557829003601f168201915b50505050508152602001600282015481525050815260200190600101906120ac565b505050509050919050565b600080600080858152602001908152602001600020905060005b818054905081101561222457838282815481106121ef577f4e487b7100000000000000000000000000000000000000000000000000000000600052603260045260246000fd5b906000526020600020906003020160000154141561221157809250505061224a565b808061221c90613322565b9150506121a9565b507fffffffffffffffffffffffffffffffffffffffffffffffffffffffffffffffff9150505b92915050565b82805461225c906132f0565b90600052602060002090601f01602090048101928261227e57600085556122c5565b82601f1061229757805160ff19168380011785556122c5565b828001600101855582156122c5579182015b828111156122c45782518255916020019190600101906122a9565b5b5090506122d291906123db565b5090565b6040518060c0016040528060008152602001606081526020016060815260200160008152602001600081526020016000151581525090565b82805461231a906132f0565b90600052602060002090601f01602090048101928261233c576000855561238a565b82601f1061234d578054855561238a565b8280016001018555821561238a57600052602060002091601f016020900482015b8281111561238957825482559160010191906001019061236e565b5b50905061239791906123db565b5090565b5080546123a7906132f0565b6000825580601f106123b957506123d8565b601f0160209004906000526020600020908101906123d791906123db565b5b50565b5b808211156123f45760008160009055506001016123dc565b5090565b600061240b6124068461319c565b61316b565b90508281526020810184848401111561242357600080fd5b61242e8482856132ae565b509392505050565b60008135905061244581613409565b92915050565b600082601f83011261245c57600080fd5b813561246c8482602086016123f8565b91505092915050565b60008135905061248481613420565b92915050565b600080600080608085870312156124a057600080fd5b600085013567ffffffffffffffff8111156124ba57600080fd5b6124c68782880161244b565b945050602085013567ffffffffffffffff8111156124e357600080fd5b6124ef8782880161244b565b935050604061250087828801612475565b925050606061251187828801612475565b91505092959194509250565b60006020828403121561252f57600080fd5b600061253d84828501612475565b91505092915050565b6000806040838503121561255957600080fd5b600061256785828601612475565b925050602061257885828601612436565b9150509250929050565b6000806040838503121561259557600080fd5b60006125a385828601612475565b925050602083013567ffffffffffffffff8111156125c057600080fd5b6125cc8582860161244b565b9150509250929050565b600080600080600060a086880312156125ee57600080fd5b60006125fc88828901612475565b955050602086013567ffffffffffffffff81111561261957600080fd5b6126258882890161244b565b945050604086013567ffffffffffffffff81111561264257600080fd5b61264e8882890161244b565b935050606061265f88828901612475565b925050608061267088828901612475565b9150509295509295909350565b6000806040838503121561269057600080fd5b600061269e85828601612475565b92505060206126af85828601612475565b9150509250929050565b6000806000606084860312156126ce57600080fd5b60006126dc86828701612475565b93505060206126ed86828701612475565b925050604084013567ffffffffffffffff81111561270a57600080fd5b6127168682870161244b565b9150509250925092565b600061272c8383612c45565b905092915050565b600061273f826131dc565b61274981856131ff565b93508360208202850161275b856131cc565b8060005b8581101561279757848403895281516127788582612720565b9450612783836131f2565b925060208a0199505060018101905061275f565b50829750879550505050505092915050565b6127b281613278565b82525050565b6127c181613278565b82525050565b60006127d2826131e7565b6127dc8185613210565b93506127ec8185602086016132bd565b6127f5816133f8565b840191505092915050565b600061280b826131e7565b6128158185613221565b93506128258185602086016132bd565b61282e816133f8565b840191505092915050565b6000612846602e83613221565b91507f566f74696e67206973207374696c6c206f6e676f696e6720616e6420656c656360008301527f74696f6e206973206163746976650000000000000000000000000000000000006020830152604082019050919050565b60006128ac601283613221565b91507f456c656374696f6e2068617320656e64656400000000000000000000000000006000830152602082019050919050565b60006128ec601883613221565b91507f456c656374696f6e206973207374696c6c2061637469766500000000000000006000830152602082019050919050565b600061292c601683613221565b91507f566f74696e6720686173206e6f742073746172746564000000000000000000006000830152602082019050919050565b600061296c601a83613221565b91507f43616e646964617465206e616d652069732072657175697265640000000000006000830152602082019050919050565b60006129ac601683613221565b91507f566f74652063617374207375636365737366756c6c79000000000000000000006000830152602082019050919050565b60006129ec601783613221565b91507f456c656374696f6e20646f6573206e6f742065786973740000000000000000006000830152602082019050919050565b6000612a2c602183613221565b91507f456e642064617465206d7573742062652061667465722073746172742064617460008301527f65000000000000000000000000000000000000000000000000000000000000006020830152604082019050919050565b6000612a92601083613221565b91507f566f74696e672068617320656e646564000000000000000000000000000000006000830152602082019050919050565b6000612ad2601883613221565b91507f43616e64696461746520646f6573206e6f7420657869737400000000000000006000830152602082019050919050565b6000612b12601283613221565b91507f456c656374696f6e20697320636c6f73656400000000000000000000000000006000830152602082019050919050565b6000612b52601783613221565b91507f566f7465722068617320616c726561647920766f7465640000000000000000006000830152602082019050919050565b6000612b92601c83613221565b91507f456c656374696f6e20686173206e6f74207374617274656420796574000000006000830152602082019050919050565b6000612bd2601483613221565b91507f566f74696e6720686173206e6f7420656e6465640000000000000000000000006000830152602082019050919050565b6000612c12601683613221565b91507f456c656374696f6e206973206e6f7420616374697665000000000000000000006000830152602082019050919050565b6000606083016000830151612c5d6000860182612d25565b5060208301518482036020860152612c7582826127c7565b9150506040830151612c8a6040860182612d25565b508091505092915050565b600060c083016000830151612cad6000860182612d25565b5060208301518482036020860152612cc582826127c7565b91505060408301518482036040860152612cdf82826127c7565b9150506060830151612cf46060860182612d25565b506080830151612d076080860182612d25565b5060a0830151612d1a60a08601826127a9565b508091505092915050565b612d2e816132a4565b82525050565b612d3d816132a4565b82525050565b60006020820190508181036000830152612d5d8184612734565b905092915050565b6000602082019050612d7a60008301846127b8565b92915050565b6000604082019050612d9560008301846127b8565b8181036020830152612da68161299f565b905092915050565b6000606082019050612dc360008301866127b8565b612dd06020830185612d34565b612ddd6040830184612d34565b949350505050565b60006020820190508181036000830152612dff8184612800565b905092915050565b60006020820190508181036000830152612e2081612839565b9050919050565b60006020820190508181036000830152612e40816128df565b9050919050565b60006020820190508181036000830152612e608161291f565b9050919050565b60006020820190508181036000830152612e808161295f565b9050919050565b60006020820190508181036000830152612ea0816129df565b9050919050565b60006020820190508181036000830152612ec081612a1f565b9050919050565b60006020820190508181036000830152612ee081612a85565b9050919050565b60006020820190508181036000830152612f0081612ac5565b9050919050565b60006020820190508181036000830152612f2081612b45565b9050919050565b60006020820190508181036000830152612f4081612bc5565b9050919050565b60006020820190508181036000830152612f6081612c05565b9050919050565b60006020820190508181036000830152612f818184612c95565b905092915050565b6000602082019050612f9e6000830184612d34565b92915050565b6000604082019050612fb96000830185612d34565b8181036020830152612fcb8184612800565b90509392505050565b600060c082019050612fe96000830189612d34565b8181036020830152612ffb8188612800565b9050818103604083015261300f8187612800565b905061301e6060830186612d34565b61302b6080830185612d34565b61303860a08301846127b8565b979650505050505050565b60006060820190506130586000830186612d34565b818103602083015261306a8185612800565b90506130796040830184612d34565b949350505050565b60006040820190506130966000830184612d34565b81810360208301526130a78161289f565b905092915050565b60006040820190506130c46000830184612d34565b81810360208301526130d581612b05565b905092915050565b60006040820190506130f26000830184612d34565b818103602083015261310381612b85565b905092915050565b60006040820190506131206000830185612d34565b61312d6020830184612d34565b9392505050565b60006060820190506131496000830186612d34565b6131566020830185612d34565b6131636040830184612d34565b949350505050565b6000604051905081810181811067ffffffffffffffff82111715613192576131916133c9565b5b8060405250919050565b600067ffffffffffffffff8211156131b7576131b66133c9565b5b601f19601f8301169050602081019050919050565b6000819050602082019050919050565b600081519050919050565b600081519050919050565b6000602082019050919050565b600082825260208201905092915050565b600082825260208201905092915050565b600082825260208201905092915050565b600061323d826132a4565b9150613248836132a4565b92508282101561325b5761325a61336b565b5b828203905092915050565b600061327182613284565b9050919050565b60008115159050919050565b600073ffffffffffffffffffffffffffffffffffffffff82169050919050565b6000819050919050565b82818337600083830152505050565b60005b838110156132db5780820151818401526020810190506132c0565b838111156132ea576000848401525b50505050565b6000600282049050600182168061330857607f821691505b6020821081141561331c5761331b61339a565b5b50919050565b600061332d826132a4565b91507fffffffffffffffffffffffffffffffffffffffffffffffffffffffffffffffff8214156133605761335f61336b565b5b600182019050919050565b7f4e487b7100000000000000000000000000000000000000000000000000000000600052601160045260246000fd5b7f4e487b7100000000000000000000000000000000000000000000000000000000600052602260045260246000fd5b7f4e487b7100000000000000000000000000000000000000000000000000000000600052604160045260246000fd5b6000601f19601f8301169050919050565b61341281613266565b811461341d57600080fd5b50565b613429816132a4565b811461343457600080fd5b5056fea26469706673582212204fa1243dd9f3634d0ee98a04111c4e4892419d54dfcb2270627ca901c0059cd464736f6c63430008000033",
  "immutableReferences": {},
  "source": "// SPDX-License-Identifier: MIT\npragma solidity ^0.8.0;\n\ncontract Voting {\n    // ========================================\n    // |               Structures             |\n    // ========================================\n\n    struct Candidate {\n        uint id;\n        string name;\n        uint voteCount;\n    }\n\n    struct Election {\n        uint id;\n        string title;\n        string description;\n        uint startDate;\n        uint endDate;\n        bool isActive;\n    }\n\n    // ========================================\n    // |             State Variables          |\n    // ========================================\n\n    // Mapping from Election ID to an array of Candidates\n    mapping(uint => Candidate[]) public candidatesByElection;\n\n    // Mapping from Election ID to Election details\n    mapping(uint => Election) public elections;\n\n    // Mapping from Election ID to Voter Address to Voted Status\n    mapping(uint => mapping(address => bool)) public votes;\n\n    // Mapping from Election ID to next Candidate ID\n    mapping(uint => uint) public nextCandidateIdByElection;\n\n    // Counter for the next Election ID\n    uint public nextElectionId;\n\n    // ========================================\n    // |                Events                |\n    // ========================================\n\n    // Election Events\n    event ElectionCreated(uint indexed electionId, string title);\n    event ElectionUpdated(uint indexed electionId, string title);\n    event ElectionClosed(uint indexed electionId);\n\n    // Candidate Events\n    event CandidateAdded(uint indexed electionId, uint candidateId, string name);\n    event CandidateUpdated(uint indexed electionId, uint candidateId, string name);\n    event CandidateDeleted(uint indexed electionId, uint candidateId);\n\n    // Voting Events\n    event VoteCastingInitiated(uint indexed electionId, uint indexed candidateId, address indexed voter);\n    event VoteCastingCompleted(uint indexed electionId, uint indexed candidateId, address indexed voter, bool success, string message);\n    event ElectionRetrieved(uint indexed electionId, bool isActive, uint startDate, uint endDate);\n    event CandidatesRetrieved(uint indexed electionId, uint numberOfCandidates);\n    event ElectionStatusChecked(uint indexed electionId, bool isActive);\n    event VotingPeriodChecked(uint indexed electionId, uint currentTimestamp, uint startDate, uint endDate);\n    event VoterEligibilityChecked(uint indexed electionId, address indexed voter, bool hasVoted);\n    event CandidateIndexFound(uint indexed electionId, uint candidateId, uint candidateIndex);\n    event VoteCountIncremented(uint indexed electionId, uint candidateId, uint newVoteCount);\n    event VoterMarked(uint indexed electionId, address indexed voter);\n    event VoteCasted(uint indexed electionId, uint indexed candidateId, address indexed voter);\n    event VoteCastedEvent(uint indexed electionId, uint indexed candidateId, address indexed voter);\n    event ElectionNotStarted(uint electionId, string message);\n    event ElectionNotActive(uint electionId, string message);\n    event VotingEnded(uint electionId, string message);\n    event CandidateDoesNotExist(uint electionId, uint candidateId);\n    event AlreadyVoted(uint electionId, address voter);\n\n    // ========================================\n    // |               Constructor            |\n    // ========================================\n\n    constructor() {\n        // Optionally initialize some state variables here\n        // For example: nextElectionId = 1;\n    }\n\n    // ========================================\n    // |            Election Functions        |\n    // ========================================\n\n    /**\n     * @dev Creates a new election.\n     * @param _title The title of the election.\n     * @param _description The description of the election.\n     * @param _startDate The start timestamp of the election.\n     * @param _endDate The end timestamp of the election.\n     */\n    function createElection(\n        string memory _title,\n        string memory _description,\n        uint256 _startDate,\n        uint256 _endDate\n    ) public {\n        require(_endDate > _startDate, \"End date must be after start date\");\n\n        elections[nextElectionId] = Election({\n            id: nextElectionId,\n            title: _title,\n            description: _description,\n            startDate: _startDate,\n            endDate: _endDate,\n            isActive: true\n        });\n\n        emit ElectionCreated(nextElectionId, _title);\n        nextElectionId++;\n    }\n\n    /**\n     * @dev Updates the details of an existing election.\n     * @param _electionId The ID of the election to update.\n     * @param _title The new title of the election.\n     * @param _description The new description of the election.\n     * @param _startDate The new start timestamp of the election.\n     * @param _endDate The new end timestamp of the election.\n     */\n    function updateElection(\n        uint _electionId,\n        string memory _title,\n        string memory _description,\n        uint _startDate,\n        uint _endDate\n    ) public {\n        require(elections[_electionId].isActive, \"Election is not active\");\n        require(_endDate > _startDate, \"End date must be after start date\");\n\n        Election storage election = elections[_electionId];\n        election.title = _title;\n        election.description = _description;\n        election.startDate = _startDate;\n        election.endDate = _endDate;\n\n        emit ElectionUpdated(_electionId, _title);\n    }\n\n    /**\n     * @dev Closes an active election.\n     * @param _electionId The ID of the election to close.\n     */\n    function closeElection(uint256 _electionId) public {\n        // Ensure the election exists\n        require(elections[_electionId].endDate != 0, \"Election does not exist\");\n\n        // Set the election as inactive\n        elections[_electionId].isActive = false;\n\n        // Emit an event to signal that the election has been closed\n        emit ElectionClosed(_electionId);\n    }\n\n    /**\n     * @dev Checks the status of an election.\n     * @param _electionId The ID of the election to check.\n     * @return A string representing the election status.\n     */\n    function checkElectionStatus(uint _electionId) public returns (string memory) {\n        Election storage election = elections[_electionId];\n        emit ElectionRetrieved(_electionId, election.isActive, election.startDate, election.endDate);\n\n        if (!election.isActive) {\n            emit ElectionNotActive(_electionId, \"Election is closed\");\n            return \"Election is closed\";\n        }\n\n        if (block.timestamp < election.startDate) {\n            emit ElectionNotStarted(_electionId, \"Election has not started yet\");\n            return \"Election has not started yet\";\n        }\n\n        if (block.timestamp > election.endDate) {\n            emit VotingEnded(_electionId, \"Election has ended\");\n            return \"Election has ended\";\n        }\n\n        emit ElectionStatusChecked(_electionId, election.isActive);\n        return \"Election is ongoing\";\n    }\n\n    /**\n     * @dev Retrieves the total number of elections created.\n     * @return The count of elections.\n     */\n    function getElectionCount() public view returns (uint) {\n        return nextElectionId;\n    }\n\n    // ========================================\n    // |           Candidate Functions        |\n    // ========================================\n\n    /**\n     * @dev Adds a new candidate to an election.\n     * @param _electionId The ID of the election.\n     * @param _name The name of the candidate.\n     */\n    function addCandidate(uint _electionId, string memory _name) public {\n        Election storage election = elections[_electionId];\n        emit ElectionRetrieved(_electionId, election.isActive, election.startDate, election.endDate);\n\n        require(election.isActive, \"Election is not active\");\n        require(bytes(_name).length > 0, \"Candidate name is required\");\n\n        uint candidateId = nextCandidateIdByElection[_electionId];\n        candidatesByElection[_electionId].push(Candidate({\n            id: candidateId,\n            name: _name,\n            voteCount: 0\n        }));\n\n        emit CandidateAdded(_electionId, candidateId, _name);\n        nextCandidateIdByElection[_electionId]++;\n    }\n\n    /**\n     * @dev Updates the details of an existing candidate.\n     * @param _electionId The ID of the election.\n     * @param _candidateId The ID of the candidate to update.\n     * @param _name The new name of the candidate.\n     */\n    function updateCandidate(\n        uint _electionId,\n        uint _candidateId,\n        string memory _name\n    ) public {\n        require(elections[_electionId].isActive, \"Election is not active\");\n        require(bytes(_name).length > 0, \"Candidate name is required\");\n\n        Candidate[] storage electionCandidates = candidatesByElection[_electionId];\n        bool candidateExists = false;\n\n        for (uint i = 0; i < electionCandidates.length; i++) {\n            if (electionCandidates[i].id == _candidateId) {\n                electionCandidates[i].name = _name;\n                candidateExists = true;\n                emit CandidateUpdated(_electionId, _candidateId, _name);\n                break;\n            }\n        }\n\n        require(candidateExists, \"Candidate does not exist\");\n    }\n\n    /**\n     * @dev Deletes a candidate from an election.\n     * @param _electionId The ID of the election.\n     * @param _candidateId The ID of the candidate to delete.\n     */\n    function deleteCandidate(uint _electionId, uint _candidateId) public {\n        require(elections[_electionId].isActive, \"Election is not active\");\n\n        Candidate[] storage electionCandidates = candidatesByElection[_electionId];\n        uint indexToDelete = type(uint).max;\n        bool candidateExists = false;\n\n        for (uint i = 0; i < electionCandidates.length; i++) {\n            if (electionCandidates[i].id == _candidateId) {\n                indexToDelete = i;\n                candidateExists = true;\n                emit CandidateDeleted(_electionId, _candidateId);\n                break;\n            }\n        }\n\n        require(candidateExists, \"Candidate does not exist\");\n\n        // Swap with the last candidate and remove\n        if (indexToDelete < electionCandidates.length - 1) {\n            electionCandidates[indexToDelete] = electionCandidates[electionCandidates.length - 1];\n        }\n        electionCandidates.pop();\n    }\n\n    // ========================================\n    // |             Voting Functions         |\n    // ========================================\n\n    /**\n     * @dev Casts a vote for a candidate in a specific election.\n     * @param _electionId The ID of the election.\n     * @param _candidateId The ID of the candidate to vote for.\n     */\n    function castVote(uint _electionId, uint _candidateId) public {\n    emit VoteCastingInitiated(_electionId, _candidateId, msg.sender);\n\n    // Retrieve the election and candidates\n    Election storage election = elections[_electionId];\n    emit ElectionRetrieved(_electionId, election.isActive, election.startDate, election.endDate);\n\n    Candidate[] storage electionCandidates = candidatesByElection[_electionId];\n    emit CandidatesRetrieved(_electionId, electionCandidates.length);\n\n    // Ensure the election is active\n    require(election.isActive, \"Election is not active\");\n    emit ElectionStatusChecked(_electionId, election.isActive);\n\n    // Ensure the current time is within the voting period\n    uint currentTimestamp = block.timestamp;\n    emit VotingPeriodChecked(_electionId, currentTimestamp, election.startDate, election.endDate);\n    \n    require(currentTimestamp >= election.startDate, \"Voting has not started\");\n    require(currentTimestamp <= election.endDate, \"Voting has ended\");\n\n    // Check if the sender has already voted\n    if (votes[_electionId][msg.sender]) {\n        emit VoterEligibilityChecked(_electionId, msg.sender, true); // Voter has already voted\n        revert(\"Voter has already voted\");\n    } else {\n        emit VoterEligibilityChecked(_electionId, msg.sender, false); // Voter is eligible to vote\n    }\n\n    // Find the candidate index\n    uint candidateIndex = findCandidateIndex(_electionId, _candidateId);\n    emit CandidateIndexFound(_electionId, _candidateId, candidateIndex);\n\n    require(candidateIndex != type(uint).max, \"Candidate does not exist\");\n\n    // Increment the vote count for the candidate\n    electionCandidates[candidateIndex].voteCount++;\n    uint newVoteCount = electionCandidates[candidateIndex].voteCount;\n    emit VoteCountIncremented(_electionId, _candidateId, newVoteCount);\n\n    // Mark the sender as having voted\n    votes[_electionId][msg.sender] = true;\n    emit VoterMarked(_electionId, msg.sender);\n\n    // Emit the VoteCasted events\n    emit VoteCasted(_electionId, _candidateId, msg.sender);\n    emit VoteCastedEvent(_electionId, _candidateId, msg.sender);\n\n    // Emit event: Vote casting completed successfully\n    emit VoteCastingCompleted(_electionId, _candidateId, msg.sender, true, \"Vote cast successfully\");\n}\n\n\n\n    /**\n     * @dev Finds the index of a candidate within an election.\n     * @param _electionId The ID of the election.\n     * @param _candidateId The ID of the candidate.\n     * @return The index of the candidate in the candidates array, or type(uint).max if not found.\n     */\n    function findCandidateIndex(uint _electionId, uint _candidateId) internal view returns (uint) {\n        Candidate[] storage electionCandidates = candidatesByElection[_electionId];\n        for (uint i = 0; i < electionCandidates.length; i++) {\n            if (electionCandidates[i].id == _candidateId) {\n                return i;\n            }\n        }\n        return type(uint).max; // Indicate that the candidate was not found\n    }\n\n    /**\n     * @dev Tallies the votes for a specific election.\n     * @param _electionId The ID of the election.\n     * @return An array of Candidates with their vote counts.\n     */\n    function tallyVotes(uint _electionId) public view returns (Candidate[] memory) {\n        // Fetch election details\n        Election memory election = elections[_electionId];\n\n        // Check if either condition is met\n        bool votingEnded = block.timestamp > election.endDate;\n        bool electionNotActive = !election.isActive;\n\n        require(votingEnded || electionNotActive, \"Voting is still ongoing and election is active\");\n\n        // Return the list of candidates\n        return candidatesByElection[_electionId];\n    }\n\n    // ========================================\n    // |             View Functions           |\n    // ========================================\n\n    /**\n     * @dev Retrieves all candidates for a specific election.\n     * @param _electionId The ID of the election.\n     * @return An array of Candidates.\n     */\n    function getCandidates(uint _electionId) public view returns (Candidate[] memory) {\n        return candidatesByElection[_electionId];\n    }\n\n    /**\n     * @dev Retrieves the details of a specific election.\n     * @param _electionId The ID of the election.\n     * @return The Election struct.\n     */\n    function getElection(uint _electionId) public view returns (Election memory) {\n        return elections[_electionId];\n    }\n\n    /**\n     * @dev Retrieves the election results after voting has ended.\n     * @param _electionId The ID of the election.\n     * @return An array of Candidates with their final vote counts.\n     */\n    function getElectionResults(uint _electionId) public view returns (Candidate[] memory) {\n        require(block.timestamp > elections[_electionId].endDate, \"Voting has not ended\");\n        require(!elections[_electionId].isActive, \"Election is still active\");\n\n        return candidatesByElection[_electionId];\n    }\n}\n",
  "sourcePath": "/home/ndipelvis/Desktop/Blockchain App/Backend/src/contracts/contracts/ElectionVote.sol",
  "compiler": {
    "name": "solc",
    "version": "0.8.0+commit.c7dfd78e.Emscripten.clang"
  },
  "schemaVersion": "3.4.16",
  "updatedAt": "2024-09-27T02:33:52.886Z",
  "networkType": "ethereum",
  "devdoc": {
    "kind": "dev",
    "methods": {
      "addCandidate(uint256,string)": {
        "details": "Adds a new candidate to an election.",
        "params": {
          "_electionId": "The ID of the election.",
          "_name": "The name of the candidate."
        }
      },
      "castVote(uint256,uint256)": {
        "details": "Casts a vote for a candidate in a specific election.",
        "params": {
          "_candidateId": "The ID of the candidate to vote for.",
          "_electionId": "The ID of the election."
        }
      },
      "checkElectionStatus(uint256)": {
        "details": "Checks the status of an election.",
        "params": {
          "_electionId": "The ID of the election to check."
        },
        "returns": {
          "_0": "A string representing the election status."
        }
      },
      "closeElection(uint256)": {
        "details": "Closes an active election.",
        "params": {
          "_electionId": "The ID of the election to close."
        }
      },
      "createElection(string,string,uint256,uint256)": {
        "details": "Creates a new election.",
        "params": {
          "_description": "The description of the election.",
          "_endDate": "The end timestamp of the election.",
          "_startDate": "The start timestamp of the election.",
          "_title": "The title of the election."
        }
      },
      "deleteCandidate(uint256,uint256)": {
        "details": "Deletes a candidate from an election.",
        "params": {
          "_candidateId": "The ID of the candidate to delete.",
          "_electionId": "The ID of the election."
        }
      },
      "getCandidates(uint256)": {
        "details": "Retrieves all candidates for a specific election.",
        "params": {
          "_electionId": "The ID of the election."
        },
        "returns": {
          "_0": "An array of Candidates."
        }
      },
      "getElection(uint256)": {
        "details": "Retrieves the details of a specific election.",
        "params": {
          "_electionId": "The ID of the election."
        },
        "returns": {
          "_0": "The Election struct."
        }
      },
      "getElectionCount()": {
        "details": "Retrieves the total number of elections created.",
        "returns": {
          "_0": "The count of elections."
        }
      },
      "getElectionResults(uint256)": {
        "details": "Retrieves the election results after voting has ended.",
        "params": {
          "_electionId": "The ID of the election."
        },
        "returns": {
          "_0": "An array of Candidates with their final vote counts."
        }
      },
      "tallyVotes(uint256)": {
        "details": "Tallies the votes for a specific election.",
        "params": {
          "_electionId": "The ID of the election."
        },
        "returns": {
          "_0": "An array of Candidates with their vote counts."
        }
      },
      "updateCandidate(uint256,uint256,string)": {
        "details": "Updates the details of an existing candidate.",
        "params": {
          "_candidateId": "The ID of the candidate to update.",
          "_electionId": "The ID of the election.",
          "_name": "The new name of the candidate."
        }
      },
      "updateElection(uint256,string,string,uint256,uint256)": {
        "details": "Updates the details of an existing election.",
        "params": {
          "_description": "The new description of the election.",
          "_electionId": "The ID of the election to update.",
          "_endDate": "The new end timestamp of the election.",
          "_startDate": "The new start timestamp of the election.",
          "_title": "The new title of the election."
        }
      }
    },
    "version": 1
  },
  "userdoc": {
    "kind": "user",
    "methods": {},
    "version": 1
  }
}